{
  "_format": "hh-sol-artifact-1",
  "contractName": "Developer",
  "sourceName": "contracts/Developer.sol",
  "abi": [
    {
      "inputs": [
        {
          "internalType": "address",
          "name": "_programContract",
          "type": "address"
        }
      ],
      "stateMutability": "nonpayable",
      "type": "constructor"
    },
    {
      "anonymous": false,
      "inputs": [
        {
          "indexed": false,
          "internalType": "address",
          "name": "owner",
          "type": "address"
        },
        {
          "indexed": false,
          "internalType": "uint256",
          "name": "aiProgramTokenId",
          "type": "uint256"
        }
      ],
      "name": "AddProgram",
      "type": "event"
    },
    {
      "anonymous": false,
      "inputs": [
        {
          "indexed": true,
          "internalType": "address",
          "name": "previousOwner",
          "type": "address"
        },
        {
          "indexed": true,
          "internalType": "address",
          "name": "newOwner",
          "type": "address"
        }
      ],
      "name": "OwnershipTransferred",
      "type": "event"
    },
    {
      "anonymous": false,
      "inputs": [
        {
          "indexed": false,
          "internalType": "address",
          "name": "owner",
          "type": "address"
        },
        {
          "indexed": true,
          "internalType": "string",
          "name": "name",
          "type": "string"
        },
        {
          "indexed": true,
          "internalType": "string",
          "name": "githubUrl",
          "type": "string"
        }
      ],
      "name": "RegisterDev",
      "type": "event"
    },
    {
      "inputs": [
        {
          "internalType": "address",
          "name": "",
          "type": "address"
        }
      ],
      "name": "addrDevInfoMap",
      "outputs": [
        {
          "internalType": "address",
          "name": "devAddr",
          "type": "address"
        },
        {
          "internalType": "string",
          "name": "name",
          "type": "string"
        },
        {
          "internalType": "string",
          "name": "desc",
          "type": "string"
        },
        {
          "internalType": "address",
          "name": "headIconNFT",
          "type": "address"
        },
        {
          "internalType": "uint256",
          "name": "tokenId",
          "type": "uint256"
        },
        {
          "internalType": "string",
          "name": "headIconUrl",
          "type": "string"
        },
        {
          "internalType": "string",
          "name": "githubUrl",
          "type": "string"
        }
      ],
      "stateMutability": "view",
      "type": "function"
    },
    {
      "inputs": [
        {
          "internalType": "address",
          "name": "",
          "type": "address"
        },
        {
          "internalType": "uint256",
          "name": "",
          "type": "uint256"
        }
      ],
      "name": "addrProgramTokenIdsMap",
      "outputs": [
        {
          "internalType": "uint256",
          "name": "",
          "type": "uint256"
        }
      ],
      "stateMutability": "view",
      "type": "function"
    },
    {
      "inputs": [],
      "name": "bPermissionless",
      "outputs": [
        {
          "internalType": "bool",
          "name": "",
          "type": "bool"
        }
      ],
      "stateMutability": "view",
      "type": "function"
    },
    {
      "inputs": [],
      "name": "getAllDevInfo",
      "outputs": [
        {
          "components": [
            {
              "internalType": "address",
              "name": "devAddr",
              "type": "address"
            },
            {
              "internalType": "string",
              "name": "name",
              "type": "string"
            },
            {
              "internalType": "string",
              "name": "desc",
              "type": "string"
            },
            {
              "internalType": "address",
              "name": "headIconNFT",
              "type": "address"
            },
            {
              "internalType": "uint256",
              "name": "tokenId",
              "type": "uint256"
            },
            {
              "internalType": "string",
              "name": "headIconUrl",
              "type": "string"
            },
            {
              "internalType": "string",
              "name": "githubUrl",
              "type": "string"
            }
          ],
          "internalType": "struct Developer.DevInfo[]",
          "name": "devInfos",
          "type": "tuple[]"
        }
      ],
      "stateMutability": "nonpayable",
      "type": "function"
    },
    {
      "inputs": [
        {
          "internalType": "address",
          "name": "_dev",
          "type": "address"
        }
      ],
      "name": "getProgramNumber",
      "outputs": [
        {
          "internalType": "uint256",
          "name": "",
          "type": "uint256"
        }
      ],
      "stateMutability": "nonpayable",
      "type": "function"
    },
    {
      "inputs": [
        {
          "internalType": "address",
          "name": "_devAddr",
          "type": "address"
        }
      ],
      "name": "isDevPermitted",
      "outputs": [
        {
          "internalType": "bool",
          "name": "",
          "type": "bool"
        }
      ],
      "stateMutability": "nonpayable",
      "type": "function"
    },
    {
      "inputs": [],
      "name": "owner",
      "outputs": [
        {
          "internalType": "address",
          "name": "",
          "type": "address"
        }
      ],
      "stateMutability": "view",
      "type": "function"
    },
    {
      "inputs": [],
      "name": "programContract",
      "outputs": [
        {
          "internalType": "contract Program",
          "name": "",
          "type": "address"
        }
      ],
      "stateMutability": "view",
      "type": "function"
    },
    {
      "inputs": [
        {
          "internalType": "string",
          "name": "_name",
          "type": "string"
        },
        {
          "internalType": "string",
          "name": "_desc",
          "type": "string"
        },
        {
          "internalType": "address",
          "name": "_headIconNFT",
          "type": "address"
        },
        {
          "internalType": "uint256",
          "name": "_tokenId",
          "type": "uint256"
        },
        {
          "internalType": "string",
          "name": "_headIconUrl",
          "type": "string"
        },
        {
          "internalType": "string",
          "name": "_githubUrl",
          "type": "string"
        }
      ],
      "name": "registerDev",
      "outputs": [],
      "stateMutability": "nonpayable",
      "type": "function"
    },
    {
      "inputs": [
        {
          "internalType": "string",
          "name": "_ability",
          "type": "string"
        },
        {
          "internalType": "uint256",
          "name": "_mainVersion",
          "type": "uint256"
        },
        {
          "internalType": "uint256",
          "name": "_subVersion",
          "type": "uint256"
        },
        {
          "internalType": "string",
          "name": "_hashValue",
          "type": "string"
        },
        {
          "internalType": "string",
          "name": "_desc",
          "type": "string"
        },
        {
          "internalType": "string",
          "name": "_repositUrl",
          "type": "string"
        }
      ],
      "name": "registerProgram",
      "outputs": [
        {
          "internalType": "uint256",
          "name": "",
          "type": "uint256"
        }
      ],
      "stateMutability": "nonpayable",
      "type": "function"
    },
    {
      "inputs": [],
      "name": "renounceOwnership",
      "outputs": [],
      "stateMutability": "nonpayable",
      "type": "function"
    },
    {
      "inputs": [
        {
          "internalType": "address",
          "name": "_devAddr",
          "type": "address"
        },
        {
          "internalType": "bool",
          "name": "_bAdded",
          "type": "bool"
        }
      ],
      "name": "setDev",
      "outputs": [],
      "stateMutability": "nonpayable",
      "type": "function"
    },
    {
      "inputs": [
        {
          "internalType": "bool",
          "name": "_bPermissionless",
          "type": "bool"
        }
      ],
      "name": "setPermission",
      "outputs": [],
      "stateMutability": "nonpayable",
      "type": "function"
    },
    {
      "inputs": [
        {
          "internalType": "address",
          "name": "newOwner",
          "type": "address"
        }
      ],
      "name": "transferOwnership",
      "outputs": [],
      "stateMutability": "nonpayable",
      "type": "function"
    }
  ],
  "bytecode": "0x608060405234801561001057600080fd5b5060405161180138038061180183398101604081905261002f916100b2565b61003833610062565b600180546001600160a81b0319166001600160a01b0390921691909117600160a01b1790556100e2565b600080546001600160a01b038381166001600160a01b0319831681178455604051919092169283917f8be0079c531659141344cd1fd0a4f28419497f9722a3daafe3b4186f6b6457e09190a35050565b6000602082840312156100c457600080fd5b81516001600160a01b03811681146100db57600080fd5b9392505050565b611710806100f16000396000f3fe608060405234801561001057600080fd5b50600436106100ea5760003560e01c80638da5cb5b1161008c578063c3cd2bf811610066578063c3cd2bf81461020c578063d175fd641461021f578063f1c2a1bf14610233578063f2fde38b1461024657600080fd5b80638da5cb5b146101bf578063a712b7cf146101d0578063bbed8405146101e357600080fd5b80634d35bb63116100c85780634d35bb631461015b578063568a365214610170578063715018a6146101915780637bb34e3c1461019957600080fd5b806310d4023f146100ef5780631100d6ed1461010d578063482b760f14610130575b600080fd5b6100f7610259565b604051610104919061113b565b60405180910390f35b61012061011b36600461124f565b6105f5565b6040519015158152602001610104565b600154610143906001600160a01b031681565b6040516001600160a01b039091168152602001610104565b61016e61016936600461130d565b610608565b005b61018361017e3660046113d3565b6108ca565b604051908152602001610104565b61016e6108fb565b6101ac6101a736600461124f565b610931565b60405161010497969594939291906113fd565b6000546001600160a01b0316610143565b61016e6101de366004611486565b610ba4565b6101836101f136600461124f565b6001600160a01b031660009081526007602052604090205490565b61016e61021a3660046114b9565b610bee565b60015461012090600160a01b900460ff1681565b6101836102413660046114d4565b610c36565b61016e61025436600461124f565b610d86565b606060006102676004610e21565b90508067ffffffffffffffff8111156102825761028261126a565b60405190808252806020026020018201604052801561030557816020015b6102f26040518060e0016040528060006001600160a01b03168152602001606081526020016060815260200160006001600160a01b031681526020016000815260200160608152602001606081525090565b8152602001906001900390816102a05790505b50915060005b818110156105f0576000610320600483610e2b565b6001600160a01b03808216600090815260066020908152604091829020825160e08101909352805490931682526001830180549495509193908401919061036690611557565b80601f016020809104026020016040519081016040528092919081815260200182805461039290611557565b80156103df5780601f106103b4576101008083540402835291602001916103df565b820191906000526020600020905b8154815290600101906020018083116103c257829003601f168201915b505050505081526020016002820180546103f890611557565b80601f016020809104026020016040519081016040528092919081815260200182805461042490611557565b80156104715780601f1061044657610100808354040283529160200191610471565b820191906000526020600020905b81548152906001019060200180831161045457829003601f168201915b505050918352505060038201546001600160a01b03166020820152600482015460408201526005820180546060909201916104ab90611557565b80601f01602080910402602001604051908101604052809291908181526020018280546104d790611557565b80156105245780601f106104f957610100808354040283529160200191610524565b820191906000526020600020905b81548152906001019060200180831161050757829003601f168201915b5050505050815260200160068201805461053d90611557565b80601f016020809104026020016040519081016040528092919081815260200182805461056990611557565b80156105b65780601f1061058b576101008083540402835291602001916105b6565b820191906000526020600020905b81548152906001019060200180831161059957829003601f168201915b5050505050815250508483815181106105d1576105d1611592565b60200260200101819052505080806105e8906115be565b91505061030b565b505090565b6000610602600283610e3e565b92915050565b600154600160a01b900460ff16806106265750610626600233610e3e565b6106705760405162461bcd60e51b815260206004820152601660248201527511195d995b1bdc195c8e881393d508185b1b1bddd95960521b60448201526064015b60405180910390fd5b61067b600433610e3e565b156106de5760405162461bcd60e51b815260206004820152602d60248201527f446576656c6f7065723a596f752068617665207265676973746572656420617360448201526c1030903232bb32b637b832b91760991b6064820152608401610667565b600286511180156106f0575060c88551105b6107545760405162461bcd60e51b815260206004820152602f60248201527f446576656c6f7065723a20746865206c656e677468206f66206e616d65206f7260448201526e103232b9b19034b99032b93937b91760891b6064820152608401610667565b6040805160e0810182523380825260208083018a81528385018a90526001600160a01b0389811660608601526080850189905260a0850188905260c0850187905260009384526006835294909220835181546001600160a01b0319169516949094178455905180519293926107cf9260018501920190611046565b50604082015180516107eb916002840191602090910190611046565b5060608201516003820180546001600160a01b0319166001600160a01b039092169190911790556080820151600482015560a08201518051610837916005840191602090910190611046565b5060c08201518051610853916006840191602090910190611046565b5061086391506004905033610e60565b508060405161087291906115d9565b60405180910390208660405161088891906115d9565b604051908190038120338252907f06ec8770d0866b2b3554208d0d6f704afe40d126fc2e180ddbc1defd35f593c39060200160405180910390a3505050505050565b600760205281600052604060002081815481106108e657600080fd5b90600052602060002001600091509150505481565b6000546001600160a01b031633146109255760405162461bcd60e51b8152600401610667906115f5565b61092f6000610e75565b565b600660205260009081526040902080546001820180546001600160a01b03909216929161095d90611557565b80601f016020809104026020016040519081016040528092919081815260200182805461098990611557565b80156109d65780601f106109ab576101008083540402835291602001916109d6565b820191906000526020600020905b8154815290600101906020018083116109b957829003601f168201915b5050505050908060020180546109eb90611557565b80601f0160208091040260200160405190810160405280929190818152602001828054610a1790611557565b8015610a645780601f10610a3957610100808354040283529160200191610a64565b820191906000526020600020905b815481529060010190602001808311610a4757829003601f168201915b505050506003830154600484015460058501805494956001600160a01b039093169491935090610a9390611557565b80601f0160208091040260200160405190810160405280929190818152602001828054610abf90611557565b8015610b0c5780601f10610ae157610100808354040283529160200191610b0c565b820191906000526020600020905b815481529060010190602001808311610aef57829003601f168201915b505050505090806006018054610b2190611557565b80601f0160208091040260200160405190810160405280929190818152602001828054610b4d90611557565b8015610b9a5780601f10610b6f57610100808354040283529160200191610b9a565b820191906000526020600020905b815481529060010190602001808311610b7d57829003601f168201915b5050505050905087565b6000546001600160a01b03163314610bce5760405162461bcd60e51b8152600401610667906115f5565b80610be357610bde600283610ec5565b505050565b610bde600283610e60565b6000546001600160a01b03163314610c185760405162461bcd60e51b8152600401610667906115f5565b60018054911515600160a01b0260ff60a01b19909216919091179055565b600154600090600160a01b900460ff1680610c575750610c57600233610e3e565b610c9c5760405162461bcd60e51b815260206004820152601660248201527511195d995b1bdc195c8e881393d508185b1b1bddd95960521b6044820152606401610667565b6001546040516308436c9360e41b81526000916001600160a01b031690638436c93090610cd99033908c908c908c908c908c908c9060040161162a565b6020604051808303816000875af1158015610cf8573d6000803e3d6000fd5b505050506040513d601f19601f82011682018060405250810190610d1c9190611694565b336000818152600760209081526040808320805460018101825590845292829020909201849055815192835282018390529192507f76d2638547b2ca9c7c55c11a8981f7c1f92fe07cc9caa94925dc906f50334477910160405180910390a1979650505050505050565b6000546001600160a01b03163314610db05760405162461bcd60e51b8152600401610667906115f5565b6001600160a01b038116610e155760405162461bcd60e51b815260206004820152602660248201527f4f776e61626c653a206e6577206f776e657220697320746865207a65726f206160448201526564647265737360d01b6064820152608401610667565b610e1e81610e75565b50565b6000610602825490565b6000610e378383610eda565b9392505050565b6001600160a01b03811660009081526001830160205260408120541515610e37565b6000610e37836001600160a01b038416610f04565b600080546001600160a01b038381166001600160a01b0319831681178455604051919092169283917f8be0079c531659141344cd1fd0a4f28419497f9722a3daafe3b4186f6b6457e09190a35050565b6000610e37836001600160a01b038416610f53565b6000826000018281548110610ef157610ef1611592565b9060005260206000200154905092915050565b6000818152600183016020526040812054610f4b57508154600181810184556000848152602080822090930184905584548482528286019093526040902091909155610602565b506000610602565b6000818152600183016020526040812054801561103c576000610f776001836116ad565b8554909150600090610f8b906001906116ad565b9050818114610ff0576000866000018281548110610fab57610fab611592565b9060005260206000200154905080876000018481548110610fce57610fce611592565b6000918252602080832090910192909255918252600188019052604090208390555b8554869080611001576110016116c4565b600190038181906000526020600020016000905590558560010160008681526020019081526020016000206000905560019350505050610602565b6000915050610602565b82805461105290611557565b90600052602060002090601f01602090048101928261107457600085556110ba565b82601f1061108d57805160ff19168380011785556110ba565b828001600101855582156110ba579182015b828111156110ba57825182559160200191906001019061109f565b506110c69291506110ca565b5090565b5b808211156110c657600081556001016110cb565b60005b838110156110fa5781810151838201526020016110e2565b83811115611109576000848401525b50505050565b600081518084526111278160208601602086016110df565b601f01601f19169290920160200192915050565b60006020808301818452808551808352604092508286019150828160051b87010184880160005b8381101561122557888303603f19018552815180516001600160a01b031684528781015160e08986018190529061119b8287018261110f565b91505087820151858203898701526111b3828261110f565b9150506060808301516111d0828801826001600160a01b03169052565b50506080828101519086015260a080830151868303828801526111f3838261110f565b9250505060c08083015192508582038187015250611211818361110f565b968901969450505090860190600101611162565b509098975050505050505050565b80356001600160a01b038116811461124a57600080fd5b919050565b60006020828403121561126157600080fd5b610e3782611233565b634e487b7160e01b600052604160045260246000fd5b600082601f83011261129157600080fd5b813567ffffffffffffffff808211156112ac576112ac61126a565b604051601f8301601f19908116603f011681019082821181831017156112d4576112d461126a565b816040528381528660208588010111156112ed57600080fd5b836020870160208301376000602085830101528094505050505092915050565b60008060008060008060c0878903121561132657600080fd5b863567ffffffffffffffff8082111561133e57600080fd5b61134a8a838b01611280565b9750602089013591508082111561136057600080fd5b61136c8a838b01611280565b965061137a60408a01611233565b955060608901359450608089013591508082111561139757600080fd5b6113a38a838b01611280565b935060a08901359150808211156113b957600080fd5b506113c689828a01611280565b9150509295509295509295565b600080604083850312156113e657600080fd5b6113ef83611233565b946020939093013593505050565b600060018060a01b03808a16835260e0602084015261141f60e084018a61110f565b8381036040850152611431818a61110f565b9050818816606085015286608085015283810360a0850152611453818761110f565b91505082810360c0840152611468818561110f565b9a9950505050505050505050565b8035801515811461124a57600080fd5b6000806040838503121561149957600080fd5b6114a283611233565b91506114b060208401611476565b90509250929050565b6000602082840312156114cb57600080fd5b610e3782611476565b60008060008060008060c087890312156114ed57600080fd5b863567ffffffffffffffff8082111561150557600080fd5b6115118a838b01611280565b97506020890135965060408901359550606089013591508082111561153557600080fd5b6115418a838b01611280565b9450608089013591508082111561139757600080fd5b600181811c9082168061156b57607f821691505b6020821081141561158c57634e487b7160e01b600052602260045260246000fd5b50919050565b634e487b7160e01b600052603260045260246000fd5b634e487b7160e01b600052601160045260246000fd5b60006000198214156115d2576115d26115a8565b5060010190565b600082516115eb8184602087016110df565b9190910192915050565b6020808252818101527f4f776e61626c653a2063616c6c6572206973206e6f7420746865206f776e6572604082015260600190565b6001600160a01b038816815260e06020820181905260009061164e9083018961110f565b876040840152866060840152828103608084015261166c818761110f565b905082810360a0840152611680818661110f565b905082810360c0840152611468818561110f565b6000602082840312156116a657600080fd5b5051919050565b6000828210156116bf576116bf6115a8565b500390565b634e487b7160e01b600052603160045260246000fdfea26469706673582212201abe63b55df34738909442ff44aadd046f88c4221ba903693fd679d53aea17bb64736f6c634300080a0033",
  "linkReferences": {},
  "deployedLinkReferences": {}
}