{
  "_format": "hh-sol-artifact-1",
  "contractName": "Program",
  "sourceName": "contracts/Program.sol",
  "abi": [
    {
      "inputs": [],
      "stateMutability": "nonpayable",
      "type": "constructor"
    },
    {
      "anonymous": false,
      "inputs": [
        {
          "indexed": true,
          "internalType": "address",
          "name": "account",
          "type": "address"
        },
        {
          "indexed": true,
          "internalType": "address",
          "name": "operator",
          "type": "address"
        },
        {
          "indexed": false,
          "internalType": "bool",
          "name": "approved",
          "type": "bool"
        }
      ],
      "name": "ApprovalForAll",
      "type": "event"
    },
    {
      "anonymous": false,
      "inputs": [
        {
          "indexed": true,
          "internalType": "address",
          "name": "previousOwner",
          "type": "address"
        },
        {
          "indexed": true,
          "internalType": "address",
          "name": "newOwner",
          "type": "address"
        }
      ],
      "name": "OwnershipTransferred",
      "type": "event"
    },
    {
      "anonymous": false,
      "inputs": [
        {
          "indexed": true,
          "internalType": "address",
          "name": "operator",
          "type": "address"
        },
        {
          "indexed": true,
          "internalType": "address",
          "name": "from",
          "type": "address"
        },
        {
          "indexed": true,
          "internalType": "address",
          "name": "to",
          "type": "address"
        },
        {
          "indexed": false,
          "internalType": "uint256[]",
          "name": "ids",
          "type": "uint256[]"
        },
        {
          "indexed": false,
          "internalType": "uint256[]",
          "name": "values",
          "type": "uint256[]"
        }
      ],
      "name": "TransferBatch",
      "type": "event"
    },
    {
      "anonymous": false,
      "inputs": [
        {
          "indexed": true,
          "internalType": "address",
          "name": "operator",
          "type": "address"
        },
        {
          "indexed": true,
          "internalType": "address",
          "name": "from",
          "type": "address"
        },
        {
          "indexed": true,
          "internalType": "address",
          "name": "to",
          "type": "address"
        },
        {
          "indexed": false,
          "internalType": "uint256",
          "name": "id",
          "type": "uint256"
        },
        {
          "indexed": false,
          "internalType": "uint256",
          "name": "value",
          "type": "uint256"
        }
      ],
      "name": "TransferSingle",
      "type": "event"
    },
    {
      "anonymous": false,
      "inputs": [
        {
          "indexed": false,
          "internalType": "string",
          "name": "value",
          "type": "string"
        },
        {
          "indexed": true,
          "internalType": "uint256",
          "name": "id",
          "type": "uint256"
        }
      ],
      "name": "URI",
      "type": "event"
    },
    {
      "inputs": [
        {
          "internalType": "string",
          "name": "",
          "type": "string"
        }
      ],
      "name": "abilityInitNumberMap",
      "outputs": [
        {
          "internalType": "uint256",
          "name": "",
          "type": "uint256"
        }
      ],
      "stateMutability": "view",
      "type": "function"
    },
    {
      "inputs": [
        {
          "internalType": "address",
          "name": "account",
          "type": "address"
        },
        {
          "internalType": "uint256",
          "name": "id",
          "type": "uint256"
        }
      ],
      "name": "balanceOf",
      "outputs": [
        {
          "internalType": "uint256",
          "name": "",
          "type": "uint256"
        }
      ],
      "stateMutability": "view",
      "type": "function"
    },
    {
      "inputs": [
        {
          "internalType": "address[]",
          "name": "accounts",
          "type": "address[]"
        },
        {
          "internalType": "uint256[]",
          "name": "ids",
          "type": "uint256[]"
        }
      ],
      "name": "balanceOfBatch",
      "outputs": [
        {
          "internalType": "uint256[]",
          "name": "",
          "type": "uint256[]"
        }
      ],
      "stateMutability": "view",
      "type": "function"
    },
    {
      "inputs": [],
      "name": "devContract",
      "outputs": [
        {
          "internalType": "address",
          "name": "",
          "type": "address"
        }
      ],
      "stateMutability": "view",
      "type": "function"
    },
    {
      "inputs": [
        {
          "internalType": "uint256",
          "name": "id",
          "type": "uint256"
        }
      ],
      "name": "exists",
      "outputs": [
        {
          "internalType": "bool",
          "name": "",
          "type": "bool"
        }
      ],
      "stateMutability": "view",
      "type": "function"
    },
    {
      "inputs": [
        {
          "internalType": "uint256",
          "name": "_programId",
          "type": "uint256"
        }
      ],
      "name": "getAbility",
      "outputs": [
        {
          "internalType": "string",
          "name": "",
          "type": "string"
        }
      ],
      "stateMutability": "view",
      "type": "function"
    },
    {
      "inputs": [
        {
          "internalType": "address",
          "name": "_userAddr",
          "type": "address"
        },
        {
          "internalType": "uint256",
          "name": "_fromIndex",
          "type": "uint256"
        },
        {
          "internalType": "uint256",
          "name": "_toIndex",
          "type": "uint256"
        }
      ],
      "name": "getUserTokenIds",
      "outputs": [
        {
          "internalType": "uint256[]",
          "name": "tokenIds",
          "type": "uint256[]"
        }
      ],
      "stateMutability": "view",
      "type": "function"
    },
    {
      "inputs": [
        {
          "internalType": "address",
          "name": "_userAddr",
          "type": "address"
        }
      ],
      "name": "getUserTokenNumber",
      "outputs": [
        {
          "internalType": "uint256",
          "name": "",
          "type": "uint256"
        }
      ],
      "stateMutability": "view",
      "type": "function"
    },
    {
      "inputs": [
        {
          "internalType": "address",
          "name": "account",
          "type": "address"
        },
        {
          "internalType": "address",
          "name": "operator",
          "type": "address"
        }
      ],
      "name": "isApprovedForAll",
      "outputs": [
        {
          "internalType": "bool",
          "name": "",
          "type": "bool"
        }
      ],
      "stateMutability": "view",
      "type": "function"
    },
    {
      "inputs": [
        {
          "internalType": "uint256",
          "name": "_tokenId",
          "type": "uint256"
        },
        {
          "internalType": "uint256",
          "name": "_amount",
          "type": "uint256"
        }
      ],
      "name": "mintProgram",
      "outputs": [],
      "stateMutability": "nonpayable",
      "type": "function"
    },
    {
      "inputs": [],
      "name": "owner",
      "outputs": [
        {
          "internalType": "address",
          "name": "",
          "type": "address"
        }
      ],
      "stateMutability": "view",
      "type": "function"
    },
    {
      "inputs": [
        {
          "internalType": "uint256",
          "name": "",
          "type": "uint256"
        }
      ],
      "name": "programInfoMap",
      "outputs": [
        {
          "internalType": "uint256",
          "name": "tokenId",
          "type": "uint256"
        },
        {
          "internalType": "string",
          "name": "ability",
          "type": "string"
        },
        {
          "internalType": "address",
          "name": "dev",
          "type": "address"
        },
        {
          "internalType": "uint256",
          "name": "mainVersion",
          "type": "uint256"
        },
        {
          "internalType": "uint256",
          "name": "subVersion",
          "type": "uint256"
        },
        {
          "internalType": "uint256",
          "name": "uploadTime",
          "type": "uint256"
        },
        {
          "internalType": "string",
          "name": "hashValue",
          "type": "string"
        },
        {
          "internalType": "string",
          "name": "desc",
          "type": "string"
        },
        {
          "internalType": "string",
          "name": "repositUrl",
          "type": "string"
        },
        {
          "internalType": "bool",
          "name": "bPublic",
          "type": "bool"
        }
      ],
      "stateMutability": "view",
      "type": "function"
    },
    {
      "inputs": [
        {
          "internalType": "address",
          "name": "_dev",
          "type": "address"
        },
        {
          "internalType": "string",
          "name": "_ability",
          "type": "string"
        },
        {
          "internalType": "uint256",
          "name": "_mainVersion",
          "type": "uint256"
        },
        {
          "internalType": "uint256",
          "name": "_subVersion",
          "type": "uint256"
        },
        {
          "internalType": "string",
          "name": "_hashValue",
          "type": "string"
        },
        {
          "internalType": "string",
          "name": "_desc",
          "type": "string"
        },
        {
          "internalType": "string",
          "name": "_repositUrl",
          "type": "string"
        }
      ],
      "name": "registerProgram",
      "outputs": [
        {
          "internalType": "uint256",
          "name": "",
          "type": "uint256"
        }
      ],
      "stateMutability": "nonpayable",
      "type": "function"
    },
    {
      "inputs": [],
      "name": "renounceOwnership",
      "outputs": [],
      "stateMutability": "nonpayable",
      "type": "function"
    },
    {
      "inputs": [
        {
          "internalType": "address",
          "name": "from",
          "type": "address"
        },
        {
          "internalType": "address",
          "name": "to",
          "type": "address"
        },
        {
          "internalType": "uint256[]",
          "name": "ids",
          "type": "uint256[]"
        },
        {
          "internalType": "uint256[]",
          "name": "amounts",
          "type": "uint256[]"
        },
        {
          "internalType": "bytes",
          "name": "data",
          "type": "bytes"
        }
      ],
      "name": "safeBatchTransferFrom",
      "outputs": [],
      "stateMutability": "nonpayable",
      "type": "function"
    },
    {
      "inputs": [
        {
          "internalType": "address",
          "name": "from",
          "type": "address"
        },
        {
          "internalType": "address",
          "name": "to",
          "type": "address"
        },
        {
          "internalType": "uint256",
          "name": "id",
          "type": "uint256"
        },
        {
          "internalType": "uint256",
          "name": "amount",
          "type": "uint256"
        },
        {
          "internalType": "bytes",
          "name": "data",
          "type": "bytes"
        }
      ],
      "name": "safeTransferFrom",
      "outputs": [],
      "stateMutability": "nonpayable",
      "type": "function"
    },
    {
      "inputs": [
        {
          "internalType": "string",
          "name": "abilityName",
          "type": "string"
        },
        {
          "internalType": "uint256",
          "name": "_initNumber",
          "type": "uint256"
        }
      ],
      "name": "setAbilityInitNumber",
      "outputs": [],
      "stateMutability": "nonpayable",
      "type": "function"
    },
    {
      "inputs": [
        {
          "internalType": "address",
          "name": "operator",
          "type": "address"
        },
        {
          "internalType": "bool",
          "name": "approved",
          "type": "bool"
        }
      ],
      "name": "setApprovalForAll",
      "outputs": [],
      "stateMutability": "nonpayable",
      "type": "function"
    },
    {
      "inputs": [
        {
          "internalType": "address",
          "name": "_devContract",
          "type": "address"
        }
      ],
      "name": "setDevContractAddr",
      "outputs": [],
      "stateMutability": "nonpayable",
      "type": "function"
    },
    {
      "inputs": [
        {
          "internalType": "uint256",
          "name": "_tokenId",
          "type": "uint256"
        }
      ],
      "name": "setPublic",
      "outputs": [],
      "stateMutability": "nonpayable",
      "type": "function"
    },
    {
      "inputs": [
        {
          "internalType": "string",
          "name": "abilityName",
          "type": "string"
        },
        {
          "internalType": "bool",
          "name": "_bSupported",
          "type": "bool"
        }
      ],
      "name": "setSupportAbility",
      "outputs": [],
      "stateMutability": "nonpayable",
      "type": "function"
    },
    {
      "inputs": [
        {
          "internalType": "string",
          "name": "",
          "type": "string"
        }
      ],
      "name": "supportedAbilityMap",
      "outputs": [
        {
          "internalType": "bool",
          "name": "",
          "type": "bool"
        }
      ],
      "stateMutability": "view",
      "type": "function"
    },
    {
      "inputs": [
        {
          "internalType": "bytes4",
          "name": "interfaceId",
          "type": "bytes4"
        }
      ],
      "name": "supportsInterface",
      "outputs": [
        {
          "internalType": "bool",
          "name": "",
          "type": "bool"
        }
      ],
      "stateMutability": "view",
      "type": "function"
    },
    {
      "inputs": [],
      "name": "tokenId",
      "outputs": [
        {
          "internalType": "uint256",
          "name": "",
          "type": "uint256"
        }
      ],
      "stateMutability": "view",
      "type": "function"
    },
    {
      "inputs": [
        {
          "internalType": "uint256",
          "name": "_tokenId",
          "type": "uint256"
        }
      ],
      "name": "tokenURI",
      "outputs": [
        {
          "internalType": "string",
          "name": "",
          "type": "string"
        }
      ],
      "stateMutability": "view",
      "type": "function"
    },
    {
      "inputs": [
        {
          "internalType": "uint256",
          "name": "id",
          "type": "uint256"
        }
      ],
      "name": "totalSupply",
      "outputs": [
        {
          "internalType": "uint256",
          "name": "",
          "type": "uint256"
        }
      ],
      "stateMutability": "view",
      "type": "function"
    },
    {
      "inputs": [
        {
          "internalType": "address",
          "name": "newOwner",
          "type": "address"
        }
      ],
      "name": "transferOwnership",
      "outputs": [],
      "stateMutability": "nonpayable",
      "type": "function"
    },
    {
      "inputs": [
        {
          "internalType": "uint256",
          "name": "",
          "type": "uint256"
        }
      ],
      "name": "uri",
      "outputs": [
        {
          "internalType": "string",
          "name": "",
          "type": "string"
        }
      ],
      "stateMutability": "view",
      "type": "function"
    }
  ],
  "bytecode": "0x60806040523480156200001157600080fd5b506040805160208101909152600081526200002c816200003e565b50620000383362000057565b6200018c565b805162000053906002906020840190620000a9565b5050565b600480546001600160a01b038381166001600160a01b0319831681179093556040519116919082907f8be0079c531659141344cd1fd0a4f28419497f9722a3daafe3b4186f6b6457e090600090a35050565b828054620000b7906200014f565b90600052602060002090601f016020900481019282620000db576000855562000126565b82601f10620000f657805160ff191683800117855562000126565b8280016001018555821562000126579182015b828111156200012657825182559160200191906001019062000109565b506200013492915062000138565b5090565b5b8082111562000134576000815560010162000139565b600181811c908216806200016457607f821691505b602082108114156200018657634e487b7160e01b600052602260045260246000fd5b50919050565b613cef806200019c6000396000f3fe608060405234801561001057600080fd5b50600436106101c35760003560e01c806371a16450116100f9578063c2e37b9b11610097578063d5523f7711610071578063d5523f7714610435578063e985e9c514610448578063f242432a14610484578063f2fde38b1461049757600080fd5b8063c2e37b9b146103e6578063c87b56dd1461040f578063cbc5d9171461042257600080fd5b80638da5cb5b116100d35780638da5cb5b14610377578063a22cb46514610388578063b0d879881461039b578063bd85b039146103c657600080fd5b806371a164501461033e5780637af4461e146103515780638436c9301461036457600080fd5b806331845f7d116101665780634f558e79116101405780634f558e79146102ee578063522e0bcf1461031057806368c787dc14610323578063715018a61461033657600080fd5b806331845f7d146102a85780633201039a146102bb5780634e1273f4146102ce57600080fd5b80630fd6240e116101a25780630fd6240e1461023157806317d70f7c1461025c5780632eb2c2d6146102655780632f4fa7f31461027a57600080fd5b8062fdd58e146101c857806301ffc9a7146101ee5780630e89341c14610211575b600080fd5b6101db6101d6366004612baa565b6104aa565b6040519081526020015b60405180910390f35b6102016101fc366004612bea565b610544565b60405190151581526020016101e5565b61022461021f366004612c07565b610594565b6040516101e59190612c78565b600554610244906001600160a01b031681565b6040516001600160a01b0390911681526020016101e5565b6101db60065481565b610278610273366004612dd4565b610628565b005b610201610288366004612e7d565b805160208183018101805160088252928201919093012091525460ff1681565b6102786102b6366004612c07565b6106bf565b6102786102c9366004612eb1565b61070b565b6102e16102dc366004612ef5565b61075a565b6040516101e59190612ffa565b6102016102fc366004612c07565b600090815260036020526040902054151590565b61027861031e36600461300d565b610883565b6102e1610331366004613028565b6108cf565b610278610a14565b6101db61034c36600461300d565b610a4a565b61027861035f36600461306b565b610a6b565b6101db6103723660046130b8565b610aca565b6004546001600160a01b0316610244565b610278610396366004613188565b610e39565b6101db6103a9366004612e7d565b805160208183018101805160098252928201919093012091525481565b6101db6103d4366004612c07565b60009081526003602052604090205490565b6103f96103f4366004612c07565b610e48565b6040516101e59a999897969594939291906131b2565b61022461041d366004612c07565b6110c7565b610278610430366004613248565b611691565b610224610443366004612c07565b611a50565b61020161045636600461326a565b6001600160a01b03918216600090815260016020908152604080832093909416825291909152205460ff1690565b610278610492366004613294565b611a70565b6102786104a536600461300d565b611af7565b60006001600160a01b03831661051b5760405162461bcd60e51b815260206004820152602b60248201527f455243313135353a2062616c616e636520717565727920666f7220746865207a60448201526a65726f206164647265737360a81b60648201526084015b60405180910390fd5b506000818152602081815260408083206001600160a01b03861684529091529020545b92915050565b60006001600160e01b03198216636cdb3d1360e11b148061057557506001600160e01b031982166303a24d0760e21b145b8061053e57506301ffc9a760e01b6001600160e01b031983161461053e565b6060600280546105a3906132f8565b80601f01602080910402602001604051908101604052809291908181526020018280546105cf906132f8565b801561061c5780601f106105f15761010080835404028352916020019161061c565b820191906000526020600020905b8154815290600101906020018083116105ff57829003601f168201915b50505050509050919050565b6001600160a01b03851633148061064457506106448533610456565b6106ab5760405162461bcd60e51b815260206004820152603260248201527f455243313135353a207472616e736665722063616c6c6572206973206e6f74206044820152711bdddb995c881b9bdc88185c1c1c9bdd995960721b6064820152608401610512565b6106b88585858585611b92565b5050505050565b6004546001600160a01b031633146106e95760405162461bcd60e51b815260040161051290613333565b506006546000908152600760205260409020600901805460ff19166001179055565b6004546001600160a01b031633146107355760405162461bcd60e51b815260040161051290613333565b806009836040516107469190613368565b908152604051908190036020019020555050565b606081518351146107bf5760405162461bcd60e51b815260206004820152602960248201527f455243313135353a206163636f756e747320616e6420696473206c656e677468604482015268040dad2e6dac2e8c6d60bb1b6064820152608401610512565b600083516001600160401b038111156107da576107da612c8b565b604051908082528060200260200182016040528015610803578160200160208202803683370190505b50905060005b845181101561087b5761084e85828151811061082757610827613384565b602002602001015185838151811061084157610841613384565b60200260200101516104aa565b82828151811061086057610860613384565b6020908102919091010152610874816133b0565b9050610809565b509392505050565b6004546001600160a01b031633146108ad5760405162461bcd60e51b815260040161051290613333565b600580546001600160a01b0319166001600160a01b0392909216919091179055565b6001600160a01b0383166000908152600a60205260408120606091906108f490611d7d565b905080831115610902578092505b8284106109515760405162461bcd60e51b815260206004820152601c60248201527f50726f6772616d3a20696e646578206f7574206f662072616e676521000000006044820152606401610512565b61095b84846133cb565b6001600160401b0381111561097257610972612c8b565b60405190808252806020026020018201604052801561099b578160200160208202803683370190505b5091506000845b84811015610a0a576001600160a01b0387166000908152600a602052604081206109cc9083611d87565b90508085846109da816133b0565b9550815181106109ec576109ec613384565b60209081029190910101525080610a02816133b0565b9150506109a2565b5050509392505050565b6004546001600160a01b03163314610a3e5760405162461bcd60e51b815260040161051290613333565b610a486000611d9a565b565b6001600160a01b0381166000908152600a6020526040812061053e90611d7d565b6004546001600160a01b03163314610a955760405162461bcd60e51b815260040161051290613333565b80600883604051610aa69190613368565b908152604051908190036020019020805491151560ff199092169190911790555050565b6005546000906001600160a01b03163314610b425760405162461bcd60e51b815260206004820152603260248201527f50726f6772616d3a206f6e6c792064657620636f6e74726163742063616e206360448201527130b636103a3434b99031b7b73a3930b1ba1760711b6064820152608401610512565b600887604051610b529190613368565b9081526040519081900360200190205460ff16610bb15760405162461bcd60e51b815260206004820152601e60248201527f50726f6772616d3a206162696c697479204e4f5420737570706f7274656400006044820152606401610512565b6032835110610c285760405162461bcd60e51b815260206004820152603960248201527f50726f6772616d3a20746865206c656e677468206f6620646573632073686f7560448201527f6c64206265206c657373207468616e2035302062797465732e000000000000006064820152608401610512565b60068054906000610c38836133b0565b9091555050604080516101408101825260065480825260208083018b81526001600160a01b038d1684860152606084018b9052608084018a90524260a085015260c0840189905260e0840188905261010084018790526000610120850181905292835260078252939091208251815592518051929392610cbe9260018501920190612acd565b5060408201516002820180546001600160a01b0319166001600160a01b03909216919091179055606082015160038201556080820151600482015560a0820151600582015560c08201518051610d1e916006840191602090910190612acd565b5060e08201518051610d3a916007840191602090910190612acd565b506101008201518051610d57916008840191602090910190612acd565b5061012091909101516009918201805460ff1916911515919091179055600654604051610db0928b9291610d8c908c90613368565b90815260200160405180910390205460405180602001604052806000815250611dec565b6000600988604051610dc29190613368565b908152602001604051809103902054118015610dff57506006546001600160a01b0389166000908152600a60205260409020610dfd91611efc565b155b15610e2a576006546001600160a01b0389166000908152600a60205260409020610e2891611f14565b505b50600654979650505050505050565b610e44338383611f20565b5050565b60076020526000908152604090208054600182018054919291610e6a906132f8565b80601f0160208091040260200160405190810160405280929190818152602001828054610e96906132f8565b8015610ee35780601f10610eb857610100808354040283529160200191610ee3565b820191906000526020600020905b815481529060010190602001808311610ec657829003601f168201915b505050600284015460038501546004860154600587015460068801805497986001600160a01b03909516979396509194509291610f1f906132f8565b80601f0160208091040260200160405190810160405280929190818152602001828054610f4b906132f8565b8015610f985780601f10610f6d57610100808354040283529160200191610f98565b820191906000526020600020905b815481529060010190602001808311610f7b57829003601f168201915b505050505090806007018054610fad906132f8565b80601f0160208091040260200160405190810160405280929190818152602001828054610fd9906132f8565b80156110265780601f10610ffb57610100808354040283529160200191611026565b820191906000526020600020905b81548152906001019060200180831161100957829003601f168201915b50505050509080600801805461103b906132f8565b80601f0160208091040260200160405190810160405280929190818152602001828054611067906132f8565b80156110b45780601f10611089576101008083540402835291602001916110b4565b820191906000526020600020905b81548152906001019060200180831161109757829003601f168201915b5050506009909301549192505060ff168a565b6000818152600760209081526040808320815161014081019092528054825260018101805460609594840191906110fd906132f8565b80601f0160208091040260200160405190810160405280929190818152602001828054611129906132f8565b80156111765780601f1061114b57610100808354040283529160200191611176565b820191906000526020600020905b81548152906001019060200180831161115957829003601f168201915b505050918352505060028201546001600160a01b0316602082015260038201546040820152600482015460608201526005820154608082015260068201805460a0909201916111c4906132f8565b80601f01602080910402602001604051908101604052809291908181526020018280546111f0906132f8565b801561123d5780601f106112125761010080835404028352916020019161123d565b820191906000526020600020905b81548152906001019060200180831161122057829003601f168201915b50505050508152602001600782018054611256906132f8565b80601f0160208091040260200160405190810160405280929190818152602001828054611282906132f8565b80156112cf5780601f106112a4576101008083540402835291602001916112cf565b820191906000526020600020905b8154815290600101906020018083116112b257829003601f168201915b505050505081526020016008820180546112e8906132f8565b80601f0160208091040260200160405190810160405280929190818152602001828054611314906132f8565b80156113615780601f1061133657610100808354040283529160200191611361565b820191906000526020600020905b81548152906001019060200180831161134457829003601f168201915b50505091835250506009919091015460ff1615156020909101529050611385612b51565b60405180610120016040528060fd8152602001613b5560fd913981526020828101516040516113b492016133e2565b60408051601f198184030181529190528160016020020181905250604051806060016040528060288152602001613c926028913981600260200201526040820151611407906001600160a01b0316612001565b6040516020016114179190613412565b60408051808303601f19018152918152606080840192909252805191820190526028808252613ab36020830139608082015260a08201516114579061205d565b6040516020016114679190613435565b60408051808303601f1901815291815260a08301919091528051606081019091526028808252613b04602083013960c082015260608201516114a89061205d565b6114b5836080015161205d565b6040516020016114c6929190613467565b60408051808303601f1901815291815260e08301919091528051606081019091526029808252613b2c60208301396101008083019190915282015160405161151191906020016134b7565b60408051808303601f190181529181526101208301919091528051606081019091526029808252613adb602083013961014082015260e082015160405161155b91906020016134da565b60408051601f1981840301815291815261016083019190915280518082018252600d81526c1e17ba32bc3a1f1e17b9bb339f60991b602080830191909152610180840191909152825181840151848401516060860151608087015160a088015160c089015160e08a015198516000996115d69990910161350e565b60408051808303601f1901815290829052610100840151610120850151610140860151610160870151610180880151949650611617958795906020016135b3565b604051602081830303815290604052905060006116646116368761205d565b61163f8461215a565b604051602001611650929190613632565b60405160208183030381529060405261215a565b9050806040516020016116779190613761565b60408051601f198184030181529190529695505050505050565b600060076000600654815260200190815260200160002060405180610140016040529081600082015481526020016001820180546116ce906132f8565b80601f01602080910402602001604051908101604052809291908181526020018280546116fa906132f8565b80156117475780601f1061171c57610100808354040283529160200191611747565b820191906000526020600020905b81548152906001019060200180831161172a57829003601f168201915b505050918352505060028201546001600160a01b0316602082015260038201546040820152600482015460608201526005820154608082015260068201805460a090920191611795906132f8565b80601f01602080910402602001604051908101604052809291908181526020018280546117c1906132f8565b801561180e5780601f106117e35761010080835404028352916020019161180e565b820191906000526020600020905b8154815290600101906020018083116117f157829003601f168201915b50505050508152602001600782018054611827906132f8565b80601f0160208091040260200160405190810160405280929190818152602001828054611853906132f8565b80156118a05780601f10611875576101008083540402835291602001916118a0565b820191906000526020600020905b81548152906001019060200180831161188357829003601f168201915b505050505081526020016008820180546118b9906132f8565b80601f01602080910402602001604051908101604052809291908181526020018280546118e5906132f8565b80156119325780601f1061190757610100808354040283529160200191611932565b820191906000526020600020905b81548152906001019060200180831161191557829003601f168201915b50505091835250506009919091015460ff1615156020909101526101208101519091508015611976575080604001516001600160a01b0316336001600160a01b0316145b80156119825750600082115b6119f45760405162461bcd60e51b815260206004820152603c60248201527f50726f6772616d3a206f6e6c792064657620636f756c64206d696e742070756260448201527f6c69632070726f6772616d2077697468203e2030206e756d6265722e000000006064820152608401610512565b611a0f33848460405180602001604052806000815250611dec565b600654336000908152600a60205260409020611a2a91611efc565b611a4b57600654336000908152600a60205260409020611a4991611f14565b505b505050565b60008181526007602052604090206001018054606091906105a3906132f8565b6001600160a01b038516331480611a8c5750611a8c8533610456565b611aea5760405162461bcd60e51b815260206004820152602960248201527f455243313135353a2063616c6c6572206973206e6f74206f776e6572206e6f7260448201526808185c1c1c9bdd995960ba1b6064820152608401610512565b6106b885858585856122bf565b6004546001600160a01b03163314611b215760405162461bcd60e51b815260040161051290613333565b6001600160a01b038116611b865760405162461bcd60e51b815260206004820152602660248201527f4f776e61626c653a206e6577206f776e657220697320746865207a65726f206160448201526564647265737360d01b6064820152608401610512565b611b8f81611d9a565b50565b8151835114611bf45760405162461bcd60e51b815260206004820152602860248201527f455243313135353a2069647320616e6420616d6f756e7473206c656e677468206044820152670dad2e6dac2e8c6d60c31b6064820152608401610512565b6001600160a01b038416611c1a5760405162461bcd60e51b8152600401610512906137a6565b33611c298187878787876123dc565b60005b8451811015611d0f576000858281518110611c4957611c49613384565b602002602001015190506000858381518110611c6757611c67613384565b602090810291909101810151600084815280835260408082206001600160a01b038e168352909352919091205490915081811015611cb75760405162461bcd60e51b8152600401610512906137eb565b6000838152602081815260408083206001600160a01b038e8116855292528083208585039055908b16825281208054849290611cf4908490613835565b9250508190555050505080611d08906133b0565b9050611c2c565b50846001600160a01b0316866001600160a01b0316826001600160a01b03167f4a39dc06d4c0dbc64b70af90fd698a233a518aa5d07e595d983b8c0526c8f7fb8787604051611d5f92919061384d565b60405180910390a4611d7581878787878761255d565b505050505050565b600061053e825490565b6000611d9383836126b9565b9392505050565b600480546001600160a01b038381166001600160a01b0319831681179093556040519116919082907f8be0079c531659141344cd1fd0a4f28419497f9722a3daafe3b4186f6b6457e090600090a35050565b6001600160a01b038416611e4c5760405162461bcd60e51b815260206004820152602160248201527f455243313135353a206d696e7420746f20746865207a65726f206164647265736044820152607360f81b6064820152608401610512565b33611e6c81600087611e5d886126e3565b611e66886126e3565b876123dc565b6000848152602081815260408083206001600160a01b038916845290915281208054859290611e9c908490613835565b909155505060408051858152602081018590526001600160a01b0380881692600092918516917fc3d58168c5ae7397731d063d5bbf3d657854427343f4c083240f7aacaa2d0f62910160405180910390a46106b88160008787878761272e565b60008181526001830160205260408120541515611d93565b6000611d9383836127e9565b816001600160a01b0316836001600160a01b03161415611f945760405162461bcd60e51b815260206004820152602960248201527f455243313135353a2073657474696e6720617070726f76616c20737461747573604482015268103337b91039b2b63360b91b6064820152608401610512565b6001600160a01b03838116600081815260016020908152604080832094871680845294825291829020805460ff191686151590811790915591519182527f17307eab39ab6107e8899845ad3d59bd9653f200f220920489ca2b5937696c31910160405180910390a3505050565b6060816120285750506040805180820190915260048152630307830360e41b602082015290565b8160005b811561204b578061203c816133b0565b915050600882901c915061202c565b6120558482612838565b949350505050565b6060816120815750506040805180820190915260018152600360fc1b602082015290565b8160005b81156120ab5780612095816133b0565b91506120a49050600a83613891565b9150612085565b6000816001600160401b038111156120c5576120c5612c8b565b6040519080825280601f01601f1916602001820160405280156120ef576020820181803683370190505b5090505b8415612055576121046001836133cb565b9150612111600a866138a5565b61211c906030613835565b60f81b81838151811061213157612131613384565b60200101906001600160f81b031916908160001a905350612153600a86613891565b94506120f3565b80516060908061217a575050604080516020810190915260008152919050565b60006003612189836002613835565b6121939190613891565b61219e9060046138b9565b905060006121ad826020613835565b6001600160401b038111156121c4576121c4612c8b565b6040519080825280601f01601f1916602001820160405280156121ee576020820181803683370190505b5090506000604051806060016040528060408152602001613c52604091399050600181016020830160005b8681101561227a576003818a01810151603f601282901c8116860151600c83901c8216870151600684901c831688015192909316870151600891821b60ff94851601821b92841692909201901b91160160e01b835260049092019101612219565b50600386066001811461229457600281146122a5576122b1565b613d3d60f01b6001198301526122b1565b603d60f81b6000198301525b505050918152949350505050565b6001600160a01b0384166122e55760405162461bcd60e51b8152600401610512906137a6565b336122f5818787611e5d886126e3565b6000848152602081815260408083206001600160a01b038a168452909152902054838110156123365760405162461bcd60e51b8152600401610512906137eb565b6000858152602081815260408083206001600160a01b038b8116855292528083208785039055908816825281208054869290612373908490613835565b909155505060408051868152602081018690526001600160a01b03808916928a821692918616917fc3d58168c5ae7397731d063d5bbf3d657854427343f4c083240f7aacaa2d0f62910160405180910390a46123d382888888888861272e565b50505050505050565b60005b83518110156123d3576001600160a01b0386161580159061241357506124118685838151811061084157610841613384565b155b1561246a5761246884828151811061242d5761242d613384565b6020026020010151600a6000896001600160a01b03166001600160a01b031681526020019081526020016000206129d390919063ffffffff16565b505b6001600160a01b0385161580159061249b5750600083828151811061249157612491613384565b6020026020010151115b80156124f457506124f28482815181106124b7576124b7613384565b6020026020010151600a6000886001600160a01b03166001600160a01b03168152602001908152602001600020611efc90919063ffffffff16565b155b1561254b5761254984828151811061250e5761250e613384565b6020026020010151600a6000886001600160a01b03166001600160a01b03168152602001908152602001600020611f1490919063ffffffff16565b505b80612555816133b0565b9150506123df565b6001600160a01b0384163b15611d755760405163bc197c8160e01b81526001600160a01b0385169063bc197c81906125a190899089908890889088906004016138d8565b6020604051808303816000875af19250505080156125dc575060408051601f3d908101601f191682019092526125d991810190613936565b60015b612689576125e8613953565b806308c379a0141561262257506125fd61396f565b806126085750612624565b8060405162461bcd60e51b81526004016105129190612c78565b505b60405162461bcd60e51b815260206004820152603460248201527f455243313135353a207472616e7366657220746f206e6f6e20455243313135356044820152732932b1b2b4bb32b91034b6b83632b6b2b73a32b960611b6064820152608401610512565b6001600160e01b0319811663bc197c8160e01b146123d35760405162461bcd60e51b8152600401610512906139f8565b60008260000182815481106126d0576126d0613384565b9060005260206000200154905092915050565b6040805160018082528183019092526060916000919060208083019080368337019050509050828160008151811061271d5761271d613384565b602090810291909101015292915050565b6001600160a01b0384163b15611d755760405163f23a6e6160e01b81526001600160a01b0385169063f23a6e61906127729089908990889088908890600401613a40565b6020604051808303816000875af19250505080156127ad575060408051601f3d908101601f191682019092526127aa91810190613936565b60015b6127b9576125e8613953565b6001600160e01b0319811663f23a6e6160e01b146123d35760405162461bcd60e51b8152600401610512906139f8565b60008181526001830160205260408120546128305750815460018181018455600084815260208082209093018490558454848252828601909352604090209190915561053e565b50600061053e565b606060006128478360026138b9565b612852906002613835565b6001600160401b0381111561286957612869612c8b565b6040519080825280601f01601f191660200182016040528015612893576020820181803683370190505b509050600360fc1b816000815181106128ae576128ae613384565b60200101906001600160f81b031916908160001a905350600f60fb1b816001815181106128dd576128dd613384565b60200101906001600160f81b031916908160001a90535060006129018460026138b9565b61290c906001613835565b90505b6001811115612984576f181899199a1a9b1b9c1cb0b131b232b360811b85600f166010811061294057612940613384565b1a60f81b82828151811061295657612956613384565b60200101906001600160f81b031916908160001a90535060049490941c9361297d81613a85565b905061290f565b508315611d935760405162461bcd60e51b815260206004820181905260248201527f537472696e67733a20686578206c656e67746820696e73756666696369656e746044820152606401610512565b6000611d93838360008181526001830160205260408120548015612ac35760006129fe6001836133cb565b8554909150600090612a12906001906133cb565b9050818114612a77576000866000018281548110612a3257612a32613384565b9060005260206000200154905080876000018481548110612a5557612a55613384565b6000918252602080832090910192909255918252600188019052604090208390555b8554869080612a8857612a88613a9c565b60019003818190600052602060002001600090559055856001016000868152602001908152602001600020600090556001935050505061053e565b600091505061053e565b828054612ad9906132f8565b90600052602060002090601f016020900481019282612afb5760008555612b41565b82601f10612b1457805160ff1916838001178555612b41565b82800160010185558215612b41579182015b82811115612b41578251825591602001919060010190612b26565b50612b4d929150612b79565b5090565b604051806101a00160405280600d905b6060815260200190600190039081612b615790505090565b5b80821115612b4d5760008155600101612b7a565b80356001600160a01b0381168114612ba557600080fd5b919050565b60008060408385031215612bbd57600080fd5b612bc683612b8e565b946020939093013593505050565b6001600160e01b031981168114611b8f57600080fd5b600060208284031215612bfc57600080fd5b8135611d9381612bd4565b600060208284031215612c1957600080fd5b5035919050565b60005b83811015612c3b578181015183820152602001612c23565b83811115611a495750506000910152565b60008151808452612c64816020860160208601612c20565b601f01601f19169290920160200192915050565b602081526000611d936020830184612c4c565b634e487b7160e01b600052604160045260246000fd5b601f8201601f191681016001600160401b0381118282101715612cc657612cc6612c8b565b6040525050565b60006001600160401b03821115612ce657612ce6612c8b565b5060051b60200190565b600082601f830112612d0157600080fd5b81356020612d0e82612ccd565b604051612d1b8282612ca1565b83815260059390931b8501820192828101915086841115612d3b57600080fd5b8286015b84811015612d565780358352918301918301612d3f565b509695505050505050565b600082601f830112612d7257600080fd5b81356001600160401b03811115612d8b57612d8b612c8b565b604051612da2601f8301601f191660200182612ca1565b818152846020838601011115612db757600080fd5b816020850160208301376000918101602001919091529392505050565b600080600080600060a08688031215612dec57600080fd5b612df586612b8e565b9450612e0360208701612b8e565b935060408601356001600160401b0380821115612e1f57600080fd5b612e2b89838a01612cf0565b94506060880135915080821115612e4157600080fd5b612e4d89838a01612cf0565b93506080880135915080821115612e6357600080fd5b50612e7088828901612d61565b9150509295509295909350565b600060208284031215612e8f57600080fd5b81356001600160401b03811115612ea557600080fd5b61205584828501612d61565b60008060408385031215612ec457600080fd5b82356001600160401b03811115612eda57600080fd5b612ee685828601612d61565b95602094909401359450505050565b60008060408385031215612f0857600080fd5b82356001600160401b0380821115612f1f57600080fd5b818501915085601f830112612f3357600080fd5b81356020612f4082612ccd565b604051612f4d8282612ca1565b83815260059390931b8501820192828101915089841115612f6d57600080fd5b948201945b83861015612f9257612f8386612b8e565b82529482019490820190612f72565b96505086013592505080821115612fa857600080fd5b50612fb585828601612cf0565b9150509250929050565b600081518084526020808501945080840160005b83811015612fef57815187529582019590820190600101612fd3565b509495945050505050565b602081526000611d936020830184612fbf565b60006020828403121561301f57600080fd5b611d9382612b8e565b60008060006060848603121561303d57600080fd5b61304684612b8e565b95602085013595506040909401359392505050565b80358015158114612ba557600080fd5b6000806040838503121561307e57600080fd5b82356001600160401b0381111561309457600080fd5b6130a085828601612d61565b9250506130af6020840161305b565b90509250929050565b600080600080600080600060e0888a0312156130d357600080fd5b6130dc88612b8e565b965060208801356001600160401b03808211156130f857600080fd5b6131048b838c01612d61565b975060408a0135965060608a0135955060808a013591508082111561312857600080fd5b6131348b838c01612d61565b945060a08a013591508082111561314a57600080fd5b6131568b838c01612d61565b935060c08a013591508082111561316c57600080fd5b506131798a828b01612d61565b91505092959891949750929550565b6000806040838503121561319b57600080fd5b6131a483612b8e565b91506130af6020840161305b565b60006101408c83528060208401526131cc8184018d612c4c565b6001600160a01b038c166040850152606084018b9052608084018a905260a0840189905283810360c085015290506132048188612c4c565b905082810360e08401526132188187612c4c565b905082810361010084015261322d8186612c4c565b9150508215156101208301529b9a5050505050505050505050565b6000806040838503121561325b57600080fd5b50508035926020909101359150565b6000806040838503121561327d57600080fd5b61328683612b8e565b91506130af60208401612b8e565b600080600080600060a086880312156132ac57600080fd5b6132b586612b8e565b94506132c360208701612b8e565b9350604086013592506060860135915060808601356001600160401b038111156132ec57600080fd5b612e7088828901612d61565b600181811c9082168061330c57607f821691505b6020821081141561332d57634e487b7160e01b600052602260045260246000fd5b50919050565b6020808252818101527f4f776e61626c653a2063616c6c6572206973206e6f7420746865206f776e6572604082015260600190565b6000825161337a818460208701612c20565b9190910192915050565b634e487b7160e01b600052603260045260246000fd5b634e487b7160e01b600052601160045260246000fd5b60006000198214156133c4576133c461339a565b5060010190565b6000828210156133dd576133dd61339a565b500390565b6720b134b634ba3c9d60c11b815260008251613405816008850160208701612c20565b9190910160080192915050565b672232bb20b232391d60c11b815260008251613405816008850160208701612c20565b692a34b6b2b9ba30b6b81d60b11b81526000825161345a81600a850160208701612c20565b91909101600a0192915050565b672b32b939b4b7b71d60c11b81526000835161348a816008850160208801612c20565b601d60f91b60089184019182015283516134ab816009840160208801612c20565b01600901949350505050565b672932b837b9b4ba1d60c11b815260008251613405816008850160208701612c20565b6b2232b9b1b934b83a34b7b71d60a11b81526000825161350181600c850160208701612c20565b91909101600c0192915050565b6000895160206135218285838f01612c20565b8a51918401916135348184848f01612c20565b8a519201916135468184848e01612c20565b89519201916135588184848d01612c20565b885192019161356a8184848c01612c20565b875192019161357c8184848b01612c20565b865192019161358e8184848a01612c20565b85519201916135a08184848901612c20565b919091019b9a5050505050505050505050565b6000875160206135c68285838d01612c20565b8851918401916135d98184848d01612c20565b88519201916135eb8184848c01612c20565b87519201916135fd8184848b01612c20565b865192019161360f8184848a01612c20565b85519201916136218184848901612c20565b919091019998505050505050505050565b727b226e616d65223a202250726f6772616d202360681b81528251600090613661816013850160208801612c20565b7f222c20226465736372697074696f6e223a202250726f6772616d7320617265206013918401918201527f646576656c6f70656420627920646576656c6f7065727320616e642063616e2060338201527f626520617474616368656420746f20726f626f7473206173206f6e65206f662060538201527f746865206361706162696c697469657320746865792063616e20686176652e2e60738201527f222c2022696d616765223a2022646174613a696d6167652f7376672b786d6c3b60938201526618985cd94d8d0b60ca1b60b382015283516137468160ba840160208801612c20565b61227d60f01b60ba929091019182015260bc01949350505050565b7f646174613a6170706c69636174696f6e2f6a736f6e3b6261736536342c00000081526000825161379981601d850160208701612c20565b91909101601d0192915050565b60208082526025908201527f455243313135353a207472616e7366657220746f20746865207a65726f206164604082015264647265737360d81b606082015260800190565b6020808252602a908201527f455243313135353a20696e73756666696369656e742062616c616e636520666f60408201526939103a3930b739b332b960b11b606082015260800190565b600082198211156138485761384861339a565b500190565b6040815260006138606040830185612fbf565b82810360208401526138728185612fbf565b95945050505050565b634e487b7160e01b600052601260045260246000fd5b6000826138a0576138a061387b565b500490565b6000826138b4576138b461387b565b500690565b60008160001904831182151516156138d3576138d361339a565b500290565b6001600160a01b0386811682528516602082015260a06040820181905260009061390490830186612fbf565b82810360608401526139168186612fbf565b9050828103608084015261392a8185612c4c565b98975050505050505050565b60006020828403121561394857600080fd5b8151611d9381612bd4565b600060033d111561396c5760046000803e5060005160e01c5b90565b600060443d101561397d5790565b6040516003193d81016004833e81513d6001600160401b0381602484011181841117156139ac57505050505090565b82850191508151818111156139c45750505050505090565b843d87010160208285010111156139de5750505050505090565b6139ed60208286010187612ca1565b509095945050505050565b60208082526028908201527f455243313135353a204552433131353552656365697665722072656a656374656040820152676420746f6b656e7360c01b606082015260800190565b6001600160a01b03868116825285166020820152604081018490526060810183905260a060808201819052600090613a7a90830184612c4c565b979650505050505050565b600081613a9457613a9461339a565b506000190190565b634e487b7160e01b600052603160045260246000fdfe3c2f746578743e3c7465787420783d2231302220793d2236302220636c6173733d2262617365223e3c2f746578743e3c7465787420783d2231302220793d223132302220636c6173733d2262617365223e3c2f746578743e3c7465787420783d2231302220793d2238302220636c6173733d2262617365223e3c2f746578743e3c7465787420783d2231302220793d223130302220636c6173733d2262617365223e3c73766720786d6c6e733d22687474703a2f2f7777772e77332e6f72672f323030302f73766722207072657365727665417370656374526174696f3d22784d696e594d696e206d656574222076696577426f783d223020302033353020333530223e3c7374796c653e2e62617365207b2066696c6c3a2077686974653b20666f6e742d66616d696c793a2073657269663b20666f6e742d73697a653a20313470783b207d3c2f7374796c653e3c726563742077696474683d223130302522206865696768743d2231303025222066696c6c3d22626c61636b22202f3e3c7465787420783d2231302220793d2232302220636c6173733d2262617365223e4142434445464748494a4b4c4d4e4f505152535455565758595a6162636465666768696a6b6c6d6e6f707172737475767778797a303132333435363738392b2f3c2f746578743e3c7465787420783d2231302220793d2234302220636c6173733d2262617365223ea2646970667358221220e63c70464cd87437faa9ec7baa5e29ddccdb1b55de3faaf5dceffb3aeb27e9d964736f6c634300080a0033",
  "linkReferences": {},
  "deployedLinkReferences": {}
}