{
  "_format": "hh-sol-artifact-1",
  "contractName": "RobocupCompetitionPlatform",
  "sourceName": "contracts/RobocupCompetitionPlatform.sol",
  "abi": [
    {
      "inputs": [
        {
          "internalType": "address",
          "name": "_robotContract",
          "type": "address"
        },
        {
          "internalType": "address",
          "name": "_programContract",
          "type": "address"
        }
      ],
      "stateMutability": "nonpayable",
      "type": "constructor"
    },
    {
      "anonymous": false,
      "inputs": [
        {
          "indexed": true,
          "internalType": "address",
          "name": "owner",
          "type": "address"
        },
        {
          "indexed": true,
          "internalType": "address",
          "name": "approved",
          "type": "address"
        },
        {
          "indexed": true,
          "internalType": "uint256",
          "name": "tokenId",
          "type": "uint256"
        }
      ],
      "name": "Approval",
      "type": "event"
    },
    {
      "anonymous": false,
      "inputs": [
        {
          "indexed": true,
          "internalType": "address",
          "name": "owner",
          "type": "address"
        },
        {
          "indexed": true,
          "internalType": "address",
          "name": "operator",
          "type": "address"
        },
        {
          "indexed": false,
          "internalType": "bool",
          "name": "approved",
          "type": "bool"
        }
      ],
      "name": "ApprovalForAll",
      "type": "event"
    },
    {
      "anonymous": false,
      "inputs": [
        {
          "indexed": true,
          "internalType": "address",
          "name": "previousOwner",
          "type": "address"
        },
        {
          "indexed": true,
          "internalType": "address",
          "name": "newOwner",
          "type": "address"
        }
      ],
      "name": "OwnershipTransferred",
      "type": "event"
    },
    {
      "anonymous": false,
      "inputs": [
        {
          "indexed": true,
          "internalType": "address",
          "name": "from",
          "type": "address"
        },
        {
          "indexed": true,
          "internalType": "address",
          "name": "to",
          "type": "address"
        },
        {
          "indexed": true,
          "internalType": "uint256",
          "name": "tokenId",
          "type": "uint256"
        }
      ],
      "name": "Transfer",
      "type": "event"
    },
    {
      "inputs": [],
      "name": "AbilityName",
      "outputs": [
        {
          "internalType": "string",
          "name": "",
          "type": "string"
        }
      ],
      "stateMutability": "view",
      "type": "function"
    },
    {
      "inputs": [],
      "name": "FeePerCompetition",
      "outputs": [
        {
          "internalType": "uint256",
          "name": "",
          "type": "uint256"
        }
      ],
      "stateMutability": "view",
      "type": "function"
    },
    {
      "inputs": [],
      "name": "MAX_INT",
      "outputs": [
        {
          "internalType": "uint256",
          "name": "",
          "type": "uint256"
        }
      ],
      "stateMutability": "view",
      "type": "function"
    },
    {
      "inputs": [
        {
          "internalType": "uint256",
          "name": "_robotId",
          "type": "uint256"
        },
        {
          "internalType": "uint256",
          "name": "_programId",
          "type": "uint256"
        }
      ],
      "name": "addExpectRobotWithProgram",
      "outputs": [],
      "stateMutability": "nonpayable",
      "type": "function"
    },
    {
      "inputs": [
        {
          "internalType": "address",
          "name": "to",
          "type": "address"
        },
        {
          "internalType": "uint256",
          "name": "tokenId",
          "type": "uint256"
        }
      ],
      "name": "approve",
      "outputs": [],
      "stateMutability": "nonpayable",
      "type": "function"
    },
    {
      "inputs": [
        {
          "internalType": "address",
          "name": "owner",
          "type": "address"
        }
      ],
      "name": "balanceOf",
      "outputs": [
        {
          "internalType": "uint256",
          "name": "",
          "type": "uint256"
        }
      ],
      "stateMutability": "view",
      "type": "function"
    },
    {
      "inputs": [
        {
          "internalType": "uint256",
          "name": "_robotId",
          "type": "uint256"
        },
        {
          "internalType": "uint256",
          "name": "_programId",
          "type": "uint256"
        }
      ],
      "name": "checkRobotContainProgram",
      "outputs": [
        {
          "internalType": "bool",
          "name": "",
          "type": "bool"
        }
      ],
      "stateMutability": "view",
      "type": "function"
    },
    {
      "inputs": [
        {
          "internalType": "string",
          "name": "a",
          "type": "string"
        },
        {
          "internalType": "string",
          "name": "b",
          "type": "string"
        }
      ],
      "name": "compareStrings",
      "outputs": [
        {
          "internalType": "bool",
          "name": "",
          "type": "bool"
        }
      ],
      "stateMutability": "view",
      "type": "function"
    },
    {
      "inputs": [
        {
          "internalType": "uint256",
          "name": "",
          "type": "uint256"
        }
      ],
      "name": "competitionId2EpMap",
      "outputs": [
        {
          "internalType": "address",
          "name": "",
          "type": "address"
        }
      ],
      "stateMutability": "view",
      "type": "function"
    },
    {
      "inputs": [
        {
          "internalType": "uint256",
          "name": "_fromIndex",
          "type": "uint256"
        },
        {
          "internalType": "uint256",
          "name": "_toIndex",
          "type": "uint256"
        }
      ],
      "name": "getAllExpectRobotIds",
      "outputs": [
        {
          "internalType": "uint256[]",
          "name": "robotIds",
          "type": "uint256[]"
        }
      ],
      "stateMutability": "view",
      "type": "function"
    },
    {
      "inputs": [],
      "name": "getAllExpectRobotNumber",
      "outputs": [
        {
          "internalType": "uint256",
          "name": "",
          "type": "uint256"
        }
      ],
      "stateMutability": "view",
      "type": "function"
    },
    {
      "inputs": [
        {
          "internalType": "uint256",
          "name": "tokenId",
          "type": "uint256"
        }
      ],
      "name": "getApproved",
      "outputs": [
        {
          "internalType": "address",
          "name": "",
          "type": "address"
        }
      ],
      "stateMutability": "view",
      "type": "function"
    },
    {
      "inputs": [
        {
          "internalType": "address",
          "name": "_epAddr",
          "type": "address"
        },
        {
          "internalType": "enum RobocupCompetitionPlatform.CompetitionStatus",
          "name": "status",
          "type": "uint8"
        }
      ],
      "name": "getCompetitionInfos",
      "outputs": [
        {
          "components": [
            {
              "internalType": "uint256",
              "name": "id",
              "type": "uint256"
            },
            {
              "internalType": "uint256",
              "name": "robotOneId",
              "type": "uint256"
            },
            {
              "internalType": "uint256",
              "name": "programOneId",
              "type": "uint256"
            },
            {
              "internalType": "uint256",
              "name": "robotTwoId",
              "type": "uint256"
            },
            {
              "internalType": "uint256",
              "name": "programTwoId",
              "type": "uint256"
            },
            {
              "internalType": "uint256",
              "name": "startTime",
              "type": "uint256"
            },
            {
              "internalType": "uint256",
              "name": "endTime",
              "type": "uint256"
            },
            {
              "internalType": "uint256",
              "name": "robotOneScore",
              "type": "uint256"
            },
            {
              "internalType": "uint256",
              "name": "robotTwoScore",
              "type": "uint256"
            },
            {
              "internalType": "string",
              "name": "logHash",
              "type": "string"
            },
            {
              "internalType": "string",
              "name": "monitorUrl",
              "type": "string"
            }
          ],
          "internalType": "struct RobocupCompetitionPlatform.CompetitionInfo[]",
          "name": "competitionInfos",
          "type": "tuple[]"
        }
      ],
      "stateMutability": "view",
      "type": "function"
    },
    {
      "inputs": [
        {
          "internalType": "uint256",
          "name": "_competitionId",
          "type": "uint256"
        }
      ],
      "name": "getCompetitionStatus",
      "outputs": [
        {
          "internalType": "enum RobocupCompetitionPlatform.CompetitionStatus",
          "name": "",
          "type": "uint8"
        }
      ],
      "stateMutability": "view",
      "type": "function"
    },
    {
      "inputs": [
        {
          "internalType": "uint256",
          "name": "_robotId",
          "type": "uint256"
        }
      ],
      "name": "getProgramsOfRobot",
      "outputs": [
        {
          "internalType": "uint256[]",
          "name": "programIds",
          "type": "uint256[]"
        }
      ],
      "stateMutability": "view",
      "type": "function"
    },
    {
      "inputs": [
        {
          "internalType": "address",
          "name": "owner",
          "type": "address"
        },
        {
          "internalType": "address",
          "name": "operator",
          "type": "address"
        }
      ],
      "name": "isApprovedForAll",
      "outputs": [
        {
          "internalType": "bool",
          "name": "",
          "type": "bool"
        }
      ],
      "stateMutability": "view",
      "type": "function"
    },
    {
      "inputs": [
        {
          "internalType": "uint256",
          "name": "_myRobotId",
          "type": "uint256"
        },
        {
          "internalType": "uint256",
          "name": "_myProgramId",
          "type": "uint256"
        },
        {
          "internalType": "uint256",
          "name": "_peerRobotId",
          "type": "uint256"
        },
        {
          "internalType": "uint256",
          "name": "_peerProgramId",
          "type": "uint256"
        }
      ],
      "name": "launchChallenge",
      "outputs": [],
      "stateMutability": "payable",
      "type": "function"
    },
    {
      "inputs": [],
      "name": "name",
      "outputs": [
        {
          "internalType": "string",
          "name": "",
          "type": "string"
        }
      ],
      "stateMutability": "view",
      "type": "function"
    },
    {
      "inputs": [],
      "name": "owner",
      "outputs": [
        {
          "internalType": "address",
          "name": "",
          "type": "address"
        }
      ],
      "stateMutability": "view",
      "type": "function"
    },
    {
      "inputs": [
        {
          "internalType": "uint256",
          "name": "tokenId",
          "type": "uint256"
        }
      ],
      "name": "ownerOf",
      "outputs": [
        {
          "internalType": "address",
          "name": "",
          "type": "address"
        }
      ],
      "stateMutability": "view",
      "type": "function"
    },
    {
      "inputs": [],
      "name": "programContract",
      "outputs": [
        {
          "internalType": "contract IProgram",
          "name": "",
          "type": "address"
        }
      ],
      "stateMutability": "view",
      "type": "function"
    },
    {
      "inputs": [
        {
          "internalType": "uint256",
          "name": "_robotId",
          "type": "uint256"
        },
        {
          "internalType": "uint256",
          "name": "_programId",
          "type": "uint256"
        }
      ],
      "name": "removeExpectRobotWithProgram",
      "outputs": [],
      "stateMutability": "nonpayable",
      "type": "function"
    },
    {
      "inputs": [],
      "name": "renounceOwnership",
      "outputs": [],
      "stateMutability": "nonpayable",
      "type": "function"
    },
    {
      "inputs": [],
      "name": "robotContract",
      "outputs": [
        {
          "internalType": "contract IRobot",
          "name": "",
          "type": "address"
        }
      ],
      "stateMutability": "view",
      "type": "function"
    },
    {
      "inputs": [
        {
          "internalType": "address",
          "name": "from",
          "type": "address"
        },
        {
          "internalType": "address",
          "name": "to",
          "type": "address"
        },
        {
          "internalType": "uint256",
          "name": "tokenId",
          "type": "uint256"
        }
      ],
      "name": "safeTransferFrom",
      "outputs": [],
      "stateMutability": "nonpayable",
      "type": "function"
    },
    {
      "inputs": [
        {
          "internalType": "address",
          "name": "from",
          "type": "address"
        },
        {
          "internalType": "address",
          "name": "to",
          "type": "address"
        },
        {
          "internalType": "uint256",
          "name": "tokenId",
          "type": "uint256"
        },
        {
          "internalType": "bytes",
          "name": "_data",
          "type": "bytes"
        }
      ],
      "name": "safeTransferFrom",
      "outputs": [],
      "stateMutability": "nonpayable",
      "type": "function"
    },
    {
      "inputs": [
        {
          "internalType": "address",
          "name": "operator",
          "type": "address"
        },
        {
          "internalType": "bool",
          "name": "approved",
          "type": "bool"
        }
      ],
      "name": "setApprovalForAll",
      "outputs": [],
      "stateMutability": "nonpayable",
      "type": "function"
    },
    {
      "inputs": [
        {
          "internalType": "uint256",
          "name": "_competitionId",
          "type": "uint256"
        },
        {
          "internalType": "uint256",
          "name": "_endTime",
          "type": "uint256"
        },
        {
          "internalType": "uint256",
          "name": "_robotOneScore",
          "type": "uint256"
        },
        {
          "internalType": "uint256",
          "name": "_robotTwoScore",
          "type": "uint256"
        },
        {
          "internalType": "string",
          "name": "_logHash",
          "type": "string"
        }
      ],
      "name": "setCompetitionResult",
      "outputs": [],
      "stateMutability": "nonpayable",
      "type": "function"
    },
    {
      "inputs": [
        {
          "internalType": "uint256",
          "name": "_competitionId",
          "type": "uint256"
        },
        {
          "internalType": "string",
          "name": "_monitorUrl",
          "type": "string"
        }
      ],
      "name": "setCompetitionRunning",
      "outputs": [],
      "stateMutability": "nonpayable",
      "type": "function"
    },
    {
      "inputs": [
        {
          "internalType": "address",
          "name": "_emulatePlatform",
          "type": "address"
        },
        {
          "internalType": "bool",
          "name": "bAdded",
          "type": "bool"
        }
      ],
      "name": "setEmulatePlatform",
      "outputs": [],
      "stateMutability": "nonpayable",
      "type": "function"
    },
    {
      "inputs": [
        {
          "internalType": "bytes4",
          "name": "interfaceId",
          "type": "bytes4"
        }
      ],
      "name": "supportsInterface",
      "outputs": [
        {
          "internalType": "bool",
          "name": "",
          "type": "bool"
        }
      ],
      "stateMutability": "view",
      "type": "function"
    },
    {
      "inputs": [],
      "name": "symbol",
      "outputs": [
        {
          "internalType": "string",
          "name": "",
          "type": "string"
        }
      ],
      "stateMutability": "view",
      "type": "function"
    },
    {
      "inputs": [
        {
          "internalType": "uint256",
          "name": "_competitionId",
          "type": "uint256"
        },
        {
          "internalType": "uint256",
          "name": "_startTime",
          "type": "uint256"
        }
      ],
      "name": "takeCompetition",
      "outputs": [],
      "stateMutability": "nonpayable",
      "type": "function"
    },
    {
      "inputs": [
        {
          "internalType": "uint256",
          "name": "index",
          "type": "uint256"
        }
      ],
      "name": "tokenByIndex",
      "outputs": [
        {
          "internalType": "uint256",
          "name": "",
          "type": "uint256"
        }
      ],
      "stateMutability": "view",
      "type": "function"
    },
    {
      "inputs": [],
      "name": "tokenId",
      "outputs": [
        {
          "internalType": "uint256",
          "name": "",
          "type": "uint256"
        }
      ],
      "stateMutability": "view",
      "type": "function"
    },
    {
      "inputs": [
        {
          "internalType": "uint256",
          "name": "",
          "type": "uint256"
        }
      ],
      "name": "tokenId2CompetitionMap",
      "outputs": [
        {
          "internalType": "uint256",
          "name": "id",
          "type": "uint256"
        },
        {
          "internalType": "uint256",
          "name": "robotOneId",
          "type": "uint256"
        },
        {
          "internalType": "uint256",
          "name": "programOneId",
          "type": "uint256"
        },
        {
          "internalType": "uint256",
          "name": "robotTwoId",
          "type": "uint256"
        },
        {
          "internalType": "uint256",
          "name": "programTwoId",
          "type": "uint256"
        },
        {
          "internalType": "uint256",
          "name": "startTime",
          "type": "uint256"
        },
        {
          "internalType": "uint256",
          "name": "endTime",
          "type": "uint256"
        },
        {
          "internalType": "uint256",
          "name": "robotOneScore",
          "type": "uint256"
        },
        {
          "internalType": "uint256",
          "name": "robotTwoScore",
          "type": "uint256"
        },
        {
          "internalType": "string",
          "name": "logHash",
          "type": "string"
        },
        {
          "internalType": "string",
          "name": "monitorUrl",
          "type": "string"
        }
      ],
      "stateMutability": "view",
      "type": "function"
    },
    {
      "inputs": [
        {
          "internalType": "address",
          "name": "owner",
          "type": "address"
        },
        {
          "internalType": "uint256",
          "name": "index",
          "type": "uint256"
        }
      ],
      "name": "tokenOfOwnerByIndex",
      "outputs": [
        {
          "internalType": "uint256",
          "name": "",
          "type": "uint256"
        }
      ],
      "stateMutability": "view",
      "type": "function"
    },
    {
      "inputs": [
        {
          "internalType": "uint256",
          "name": "_tokenId",
          "type": "uint256"
        }
      ],
      "name": "tokenURI",
      "outputs": [
        {
          "internalType": "string",
          "name": "",
          "type": "string"
        }
      ],
      "stateMutability": "view",
      "type": "function"
    },
    {
      "inputs": [],
      "name": "totalSupply",
      "outputs": [
        {
          "internalType": "uint256",
          "name": "",
          "type": "uint256"
        }
      ],
      "stateMutability": "view",
      "type": "function"
    },
    {
      "inputs": [
        {
          "internalType": "address",
          "name": "from",
          "type": "address"
        },
        {
          "internalType": "address",
          "name": "to",
          "type": "address"
        },
        {
          "internalType": "uint256",
          "name": "tokenId",
          "type": "uint256"
        }
      ],
      "name": "transferFrom",
      "outputs": [],
      "stateMutability": "nonpayable",
      "type": "function"
    },
    {
      "inputs": [
        {
          "internalType": "address",
          "name": "newOwner",
          "type": "address"
        }
      ],
      "name": "transferOwnership",
      "outputs": [],
      "stateMutability": "nonpayable",
      "type": "function"
    }
  ],
  "bytecode": "0x6080604052662386f26fc10000600e553480156200001c57600080fd5b50604051620049b9380380620049b98339810160408190526200003f916200021d565b604080518082018252601381527f526f626f63757020436f6d7065746974696f6e0000000000000000000000000060208083019182528351808501909452600384526252424360e81b9084015281519192916200009f916000916200015a565b508051620000b59060019060208401906200015a565b505050620000d2620000cc6200010460201b60201c565b62000108565b600f80546001600160a01b039384166001600160a01b0319918216179091556010805492909316911617905562000292565b3390565b600a80546001600160a01b038381166001600160a01b0319831681179093556040519116919082907f8be0079c531659141344cd1fd0a4f28419497f9722a3daafe3b4186f6b6457e090600090a35050565b828054620001689062000255565b90600052602060002090601f0160209004810192826200018c5760008555620001d7565b82601f10620001a757805160ff1916838001178555620001d7565b82800160010185558215620001d7579182015b82811115620001d7578251825591602001919060010190620001ba565b50620001e5929150620001e9565b5090565b5b80821115620001e55760008155600101620001ea565b80516001600160a01b03811681146200021857600080fd5b919050565b600080604083850312156200023157600080fd5b6200023c8362000200565b91506200024c6020840162000200565b90509250929050565b600181811c908216806200026a57607f821691505b602082108114156200028c57634e487b7160e01b600052602260045260246000fd5b50919050565b61471780620002a26000396000f3fe6080604052600436106102465760003560e01c8063731188a811610139578063c46ce80d116100b6578063ef432e8c1161007a578063ef432e8c146106ff578063f2912abc14610735578063f2fde38b14610755578063f48f2c2f14610775578063f87bd18d146107ac578063fda38b9f146107cc57600080fd5b8063c46ce80d14610636578063c76ccf0a14610663578063c87b56dd14610683578063c952ee85146106a3578063e985e9c5146106b657600080fd5b8063a22cb465116100fd578063a22cb46514610582578063af22c31b146105a2578063b88d4fde146105d6578063bac57b6a146105f6578063bed34bba1461061657600080fd5b8063731188a8146104ef578063774f9f601461050f5780637a6355ca1461052f5780638da5cb5b1461054f57806395d89b411461056d57600080fd5b80632cc78a01116101c75780634f6ccce71161018b5780634f6ccce71461044d57806351a7ef1e1461046d5780636352211e1461049a57806370a08231146104ba578063715018a6146104da57600080fd5b80632cc78a01146103a05780632f745c59146103c05780633c2f5b2c146103e057806342842e0e1461040d578063482b760f1461042d57600080fd5b8063098d32281161020e578063098d32281461031c578063176a88741461034057806317d70f7c1461035557806318160ddd1461036b57806323b872dd1461038057600080fd5b806301ffc9a71461024b57806306fdde0314610280578063081812fc146102a2578063095ea7b3146102da57806309804a95146102fc575b600080fd5b34801561025757600080fd5b5061026b61026636600461377c565b6107e2565b60405190151581526020015b60405180910390f35b34801561028c57600080fd5b5061029561080d565b60405161027791906137f1565b3480156102ae57600080fd5b506102c26102bd366004613804565b61089f565b6040516001600160a01b039091168152602001610277565b3480156102e657600080fd5b506102fa6102f5366004613832565b610939565b005b34801561030857600080fd5b5061026b61031736600461385e565b610a4f565b34801561032857600080fd5b5061033260001981565b604051908152602001610277565b34801561034c57600080fd5b50610332610a6e565b34801561036157600080fd5b5061033260115481565b34801561037757600080fd5b50600854610332565b34801561038c57600080fd5b506102fa61039b366004613880565b610a7f565b3480156103ac57600080fd5b506102fa6103bb3660046138cf565b610ab0565b3480156103cc57600080fd5b506103326103db366004613832565b610af5565b3480156103ec57600080fd5b506104006103fb36600461385e565b610b8b565b6040516102779190613908565b34801561041957600080fd5b506102fa610428366004613880565b610c9e565b34801561043957600080fd5b506010546102c2906001600160a01b031681565b34801561045957600080fd5b50610332610468366004613804565b610cb9565b34801561047957600080fd5b5061048d61048836600461394c565b610d4c565b604051610277919061397e565b3480156104a657600080fd5b506102c26104b5366004613804565b61108c565b3480156104c657600080fd5b506103326104d5366004613a68565b611103565b3480156104e657600080fd5b506102fa61118a565b3480156104fb57600080fd5b506102fa61050a36600461385e565b6111c0565b34801561051b57600080fd5b50600f546102c2906001600160a01b031681565b34801561053b57600080fd5b506102fa61054a366004613b52565b6113ee565b34801561055b57600080fd5b50600a546001600160a01b03166102c2565b34801561057957600080fd5b506102956114d6565b34801561058e57600080fd5b506102fa61059d3660046138cf565b6114e5565b3480156105ae57600080fd5b506102956040518060400160405280600881526020016720a4a9b7b1b1b2b960c11b81525081565b3480156105e257600080fd5b506102fa6105f1366004613b99565b6114f4565b34801561060257600080fd5b506102fa610611366004613c19565b611526565b34801561062257600080fd5b5061026b610631366004613c7d565b611609565b34801561064257600080fd5b50610656610651366004613804565b611662565b6040516102779190613ced565b34801561066f57600080fd5b5061040061067e366004613804565b611848565b34801561068f57600080fd5b5061029561069e366004613804565b611903565b6102fa6106b1366004613d15565b611e4d565b3480156106c257600080fd5b5061026b6106d1366004613d47565b6001600160a01b03918216600090815260056020908152604080832093909416825291909152205460ff1690565b34801561070b57600080fd5b506102c261071a366004613804565b6017602052600090815260409020546001600160a01b031681565b34801561074157600080fd5b506102fa61075036600461385e565b612333565b34801561076157600080fd5b506102fa610770366004613a68565b6125df565b34801561078157600080fd5b50610795610790366004613804565b61267a565b6040516102779b9a99989796959493929190613d75565b3480156107b857600080fd5b506102fa6107c736600461385e565b6127e4565b3480156107d857600080fd5b50610332600e5481565b60006001600160e01b0319821663780e9d6360e01b148061080757506108078261291d565b92915050565b60606000805461081c90613de8565b80601f016020809104026020016040519081016040528092919081815260200182805461084890613de8565b80156108955780601f1061086a57610100808354040283529160200191610895565b820191906000526020600020905b81548152906001019060200180831161087857829003601f168201915b5050505050905090565b6000818152600260205260408120546001600160a01b031661091d5760405162461bcd60e51b815260206004820152602c60248201527f4552433732313a20617070726f76656420717565727920666f72206e6f6e657860448201526b34b9ba32b73a103a37b5b2b760a11b60648201526084015b60405180910390fd5b506000908152600460205260409020546001600160a01b031690565b60006109448261108c565b9050806001600160a01b0316836001600160a01b031614156109b25760405162461bcd60e51b815260206004820152602160248201527f4552433732313a20617070726f76616c20746f2063757272656e74206f776e656044820152603960f91b6064820152608401610914565b336001600160a01b03821614806109ce57506109ce81336106d1565b610a405760405162461bcd60e51b815260206004820152603860248201527f4552433732313a20617070726f76652063616c6c6572206973206e6f74206f7760448201527f6e6572206e6f7220617070726f76656420666f7220616c6c00000000000000006064820152608401610914565b610a4a838361296d565b505050565b6000828152600b60205260408120610a6790836129db565b9392505050565b6000610a7a600c6129f3565b905090565b610a8933826129fd565b610aa55760405162461bcd60e51b815260040161091490613e23565b610a4a838383612af4565b600a546001600160a01b03163314610ada5760405162461bcd60e51b815260040161091490613e74565b80610aea57610a4a601483612c9f565b610a4a601483612cb4565b6000610b0083611103565b8210610b625760405162461bcd60e51b815260206004820152602b60248201527f455243373231456e756d657261626c653a206f776e657220696e646578206f7560448201526a74206f6620626f756e647360a81b6064820152608401610914565b506001600160a01b03919091166000908152600660209081526040808320938352929052205490565b60606000610b99600c6129f3565b905080831115610ba7578092505b828410610bf65760405162461bcd60e51b815260206004820152601c60248201527f526f626f6375703a20696e646578206f7574206f662072616e676521000000006044820152606401610914565b610c008484613ebf565b67ffffffffffffffff811115610c1857610c18613a85565b604051908082528060200260200182016040528015610c41578160200160208202803683370190505b5091506000845b84811015610c9557610c5b600c82612cc9565b8483610c6681613ed6565b945081518110610c7857610c78613ef1565b602090810291909101015280610c8d81613ed6565b915050610c48565b50505092915050565b610a4a838383604051806020016040528060008152506114f4565b6000610cc460085490565b8210610d275760405162461bcd60e51b815260206004820152602c60248201527f455243373231456e756d657261626c653a20676c6f62616c20696e646578206f60448201526b7574206f6620626f756e647360a01b6064820152608401610914565b60088281548110610d3a57610d3a613ef1565b90600052602060002001549050919050565b6001600160a01b038216600090815260166020526040812060609190610da39082856002811115610d7f57610d7f613cd7565b6002811115610d9057610d90613cd7565b81526020019081526020016000206129f3565b90508067ffffffffffffffff811115610dbe57610dbe613a85565b604051908082528060200260200182016040528015610e4c57816020015b610e3960405180610160016040528060008152602001600081526020016000815260200160008152602001600081526020016000815260200160008152602001600081526020016000815260200160608152602001606081525090565b815260200190600190039081610ddc5790505b50915060005b81811015611084576001600160a01b038516600090815260166020526040812060129190610ebc90849083896002811115610e8f57610e8f613cd7565b6002811115610ea057610ea0613cd7565b8152602001908152602001600020612cc990919063ffffffff16565b815260200190815260200160002060405180610160016040529081600082015481526020016001820154815260200160028201548152602001600382015481526020016004820154815260200160058201548152602001600682015481526020016007820154815260200160088201548152602001600982018054610f4090613de8565b80601f0160208091040260200160405190810160405280929190818152602001828054610f6c90613de8565b8015610fb95780601f10610f8e57610100808354040283529160200191610fb9565b820191906000526020600020905b815481529060010190602001808311610f9c57829003601f168201915b50505050508152602001600a82018054610fd290613de8565b80601f0160208091040260200160405190810160405280929190818152602001828054610ffe90613de8565b801561104b5780601f106110205761010080835404028352916020019161104b565b820191906000526020600020905b81548152906001019060200180831161102e57829003601f168201915b50505050508152505083828151811061106657611066613ef1565b6020026020010181905250808061107c90613ed6565b915050610e52565b505092915050565b6000818152600260205260408120546001600160a01b0316806108075760405162461bcd60e51b815260206004820152602960248201527f4552433732313a206f776e657220717565727920666f72206e6f6e657869737460448201526832b73a103a37b5b2b760b91b6064820152608401610914565b60006001600160a01b03821661116e5760405162461bcd60e51b815260206004820152602a60248201527f4552433732313a2062616c616e636520717565727920666f7220746865207a65604482015269726f206164647265737360b01b6064820152608401610914565b506001600160a01b031660009081526003602052604090205490565b600a546001600160a01b031633146111b45760405162461bcd60e51b815260040161091490613e74565b6111be6000612cd5565b565b6000828152600b602052604090206111d890826129db565b6112435760405162461bcd60e51b815260206004820152603660248201527f526f626f6375703a20726f626f742077697468207468652070726f6772616d206044820152751a185cc81393d5081899595b8818dbdb9d185a5b995960521b6064820152608401610914565b600f546040516331a9108f60e11b81526004810184905233916001600160a01b031690636352211e90602401602060405180830381865afa15801561128c573d6000803e3d6000fd5b505050506040513d601f19601f820116820180604052508101906112b09190613f07565b6001600160a01b0316146112d65760405162461bcd60e51b815260040161091490613f24565b60008281526013602090815260408083208484529091528120905b6112fa826129f3565b8110156113a857600061130d8383612cc9565b9050600061131a82611662565b9050600281600281111561133057611330613cd7565b146113935760405162461bcd60e51b815260206004820152602d60248201527f526f626f6375703a207468657265206973207374696c6c20636f6d706574697460448201526c1a5bdb881d1bc8185d1d195b99609a1b6064820152608401610914565b505080806113a090613ed6565b9150506112f1565b506000838152600b602052604090206113c19083612d27565b506000838152600b602052604090206113d9906129f3565b610a4a576113e8600c84612d27565b50505050565b6000828152601760205260409020546001600160a01b031633146114245760405162461bcd60e51b815260040161091490613f5b565b6000828152601260209081526040909120825161144992600a909201918401906136a5565b5033600090815260166020526040812061148f91849190805b600281111561147357611473613cd7565b8152602001908152602001600020612d2790919063ffffffff16565b50336000908152601660205260408120610a4a9184919060015b60028111156114ba576114ba613cd7565b8152602001908152602001600020612d3390919063ffffffff16565b60606001805461081c90613de8565b6114f0338383612d3f565b5050565b6114fe33836129fd565b61151a5760405162461bcd60e51b815260040161091490613e23565b6113e884848484612e0e565b6000858152601760205260409020546001600160a01b0316331461155c5760405162461bcd60e51b815260040161091490613f5b565b60008581526012602090815260409091206006810186905560078101859055600881018490558251611596926009909201918401906136a5565b503360009081526016602052604081206115b4918791906001611462565b503360009081526016602052604081206115d29187919060026114a9565b50600e54604051339180156108fc02916000818181858888f19350505050158015611601573d6000803e3d6000fd5b505050505050565b60008160405160200161161c9190613faf565b60405160208183030381529060405280519060200120836040516020016116439190613faf565b6040516020818303038152906040528051906020012014905092915050565b60008060126000848152602001908152602001600020604051806101600160405290816000820154815260200160018201548152602001600282015481526020016003820154815260200160048201548152602001600582015481526020016006820154815260200160078201548152602001600882015481526020016009820180546116ee90613de8565b80601f016020809104026020016040519081016040528092919081815260200182805461171a90613de8565b80156117675780601f1061173c57610100808354040283529160200191611767565b820191906000526020600020905b81548152906001019060200180831161174a57829003601f168201915b50505050508152602001600a8201805461178090613de8565b80601f01602080910402602001604051908101604052809291908181526020018280546117ac90613de8565b80156117f95780601f106117ce576101008083540402835291602001916117f9565b820191906000526020600020905b8154815290600101906020018083116117dc57829003601f168201915b50505050508152505090508060a001514210156118195750600092915050565b8060a00151421015801561183157508060c001514211155b1561183f5750600192915050565b50600292915050565b6000818152600b6020526040812060609190611863906129f3565b90508067ffffffffffffffff81111561187e5761187e613a85565b6040519080825280602002602001820160405280156118a7578160200160208202803683370190505b50915060005b818110156118fc576000848152600b602052604090206118cd9082612cc9565b8382815181106118df576118df613ef1565b6020908102919091010152806118f481613ed6565b9150506118ad565b5050919050565b60606000601260008481526020019081526020016000206040518061016001604052908160008201548152602001600182015481526020016002820154815260200160038201548152602001600482015481526020016005820154815260200160068201548152602001600782015481526020016008820154815260200160098201805461199090613de8565b80601f01602080910402602001604051908101604052809291908181526020018280546119bc90613de8565b8015611a095780601f106119de57610100808354040283529160200191611a09565b820191906000526020600020905b8154815290600101906020018083116119ec57829003601f168201915b50505050508152602001600a82018054611a2290613de8565b80601f0160208091040260200160405190810160405280929190818152602001828054611a4e90613de8565b8015611a9b5780601f10611a7057610100808354040283529160200191611a9b565b820191906000526020600020905b815481529060010190602001808311611a7e57829003601f168201915b50505050508152505090506000611ab184611662565b9050611abb613729565b60405180610120016040528060fd815260200161457d60fd913981526020830151611ae590612e41565b611af28460400151612e41565b611aff8560600151612e41565b611b0c8660800151612e41565b604051602001611b1f9493929190613fcb565b60408051601f1981840301815291905281600160200201819052506040518060600160405280602881526020016146ba60289139604082015260028281811115611b6b57611b6b613cd7565b1415611c1557611b7e8360e00151612e41565b611b8c846101000151612e41565b604051602001611b9d929190614076565b60408051808303601f190181529181526060808401929092528051918201905260288082526145556020830139608082015260a0830151611bdd90612e41565b611bea8460c00151612e41565b604051602001611bfb9291906140cb565b60408051808303601f1901815291905260a0820152611d17565b6001826002811115611c2957611c29613cd7565b1415611c99576040516a52756e6e696e67204e6f7760a81b6020820152602b0160408051808303601f190181529181526060808401929092528051918201905260288082526145556020830139608082015260a0830151611c8990612e41565b604051602001611bfb919061411f565b6040516a139bdd0814dd185c9d195960aa1b6020820152602b0160408051808303601f19018152918152606080840192909252805191820190526028808252614555602083013960808201526040516c02a34b6b2a9ba30b6b81d10169609d1b6020820152602d0160408051808303601f1901815291905260a08201525b6040518060600160405280602881526020016145556028913960c0820152610120830151604051611d4b919060200161415e565b60408051808303601f1901815291815260e08301919091528051808201909152600d81526c1e17ba32bc3a1f1e17b9bb339f60991b6020820152816008602090810291909101919091528151828201516040808501516060860151608087015160a088015160c089015160e08a01516101008b0151965160009a611dd29a9998910161418e565b60405160208183030381529060405290506000611e1f611df188612e41565b611dfa84612f3f565b604051602001611e0b92919061424f565b604051602081830303815290604052612f3f565b905080604051602001611e329190614344565b60408051601f19818403018152919052979650505050505050565b600e543414611e9e5760405162461bcd60e51b815260206004820152601760248201527f526f626f6375703a204e4f5420656e6f756768206665650000000000000000006044820152606401610914565b600f546040516331a9108f60e11b81526004810186905233916001600160a01b031690636352211e90602401602060405180830381865afa158015611ee7573d6000803e3d6000fd5b505050506040513d601f19601f82011682018060405250810190611f0b9190613f07565b6001600160a01b031614611f315760405162461bcd60e51b815260040161091490613f24565b6000848152600b60205260409020611f4990846129db565b611fbb5760405162461bcd60e51b815260206004820152603960248201527f526f626f6375703a206d7920726f626f742077697468207468652070726f677260448201527f616d20686173204e4f54206265656e20636f6e7461696e6564000000000000006064820152608401610914565b6000828152600b60205260409020611fd390826129db565b6120455760405162461bcd60e51b815260206004820152603b60248201527f526f626f6375703a207065657220726f626f742077697468207468652070726f60448201527f6772616d20686173204e4f54206265656e20636f6e7461696e656400000000006064820152608401610914565b60105460405163d5523f7760e01b8152600481018590526120df916001600160a01b03169063d5523f77906024015b600060405180830381865afa158015612091573d6000803e3d6000fd5b505050506040513d6000823e601f3d908101601f191682016040526120b99190810190614389565b6040518060400160405280600881526020016720a4a9b7b1b1b2b960c11b815250611609565b6121415760405162461bcd60e51b815260206004820152602d60248201527f526f626f6375703a206d792070726f6772616d2773206162696c69747920697360448201526c102727aa1020a4a9b7b1b1b2b960991b6064820152608401610914565b60105460405163d5523f7760e01b815260048101839052612174916001600160a01b03169063d5523f7790602401612074565b6121d85760405162461bcd60e51b815260206004820152602f60248201527f526f626f6375703a20706565722070726f6772616d2773206162696c6974792060448201526e34b9902727aa1020a4a9b7b1b1b2b960891b6064820152608401610914565b601180549060006121e883613ed6565b909155505060408051610160810182526011548082526020808301888152838501888152606085018881526080860188815260001960a0880181815260c08901918252600060e08a018181526101008b018281528c51808b018e528381526101208d019081528d51808c018f528481526101408e01529a835260128a529b9091208a518155965160018801559451600287015592516003860155905160048501559051600584015551600683015551600782015593516008850155905180519293926122ba92600985019201906136a5565b5061014082015180516122d791600a8401916020909101906136a5565b505060115460008681526013602090815260408083208884529091529020612300925090612d33565b506011546000838152601360209081526040808320858452909152902061232691612d33565b506113e8336011546130a5565b6000828152600b6020526040902061234b90826129db565b156123b35760405162461bcd60e51b815260206004820152603260248201527f526f626f6375703a20726f626f742077697468207468652070726f6772616d206044820152711a185cc81899595b8818dbdb9d185a5b995960721b6064820152608401610914565b600f546040516331a9108f60e11b81526004810184905233916001600160a01b031690636352211e90602401602060405180830381865afa1580156123fc573d6000803e3d6000fd5b505050506040513d601f19601f820116820180604052508101906124209190613f07565b6001600160a01b0316146124465760405162461bcd60e51b815260040161091490613f24565b600f546040516309804a9560e01b815260048101849052602481018390526001600160a01b03909116906309804a9590604401602060405180830381865afa158015612496573d6000803e3d6000fd5b505050506040513d601f19601f820116820180604052508101906124ba9190614400565b61251a5760405162461bcd60e51b815260206004820152602b60248201527f526f626f6375703a20726f626f7420646f6573204e4f5420636f6e7461696e2060448201526a7468652070726f6772616d60a81b6064820152608401610914565b60105460405163d5523f7760e01b81526004810183905261254d916001600160a01b03169063d5523f7790602401612074565b6125ac5760405162461bcd60e51b815260206004820152602a60248201527f526f626f6375703a2070726f6772616d2773206162696c697479206973204e4f6044820152692a1020a4a9b7b1b1b2b960b11b6064820152608401610914565b6000828152600b602052604090206125c49082612d33565b506125d0600c836129db565b6114f057610a4a600c83612d33565b600a546001600160a01b031633146126095760405162461bcd60e51b815260040161091490613e74565b6001600160a01b03811661266e5760405162461bcd60e51b815260206004820152602660248201527f4f776e61626c653a206e6577206f776e657220697320746865207a65726f206160448201526564647265737360d01b6064820152608401610914565b61267781612cd5565b50565b60126020528060005260406000206000915090508060000154908060010154908060020154908060030154908060040154908060050154908060060154908060070154908060080154908060090180546126d390613de8565b80601f01602080910402602001604051908101604052809291908181526020018280546126ff90613de8565b801561274c5780601f106127215761010080835404028352916020019161274c565b820191906000526020600020905b81548152906001019060200180831161272f57829003601f168201915b50505050509080600a01805461276190613de8565b80601f016020809104026020016040519081016040528092919081815260200182805461278d90613de8565b80156127da5780601f106127af576101008083540402835291602001916127da565b820191906000526020600020905b8154815290600101906020018083116127bd57829003601f168201915b505050505090508b565b336000818152601560205260408120546128049260149290911515610a67565b61285c5760405162461bcd60e51b815260206004820152602360248201527f526f626f6375703a204e4f54206c6567616c20656d756c61746520706c6174666044820152626f726d60e81b6064820152608401610914565b6000828152601760205260409020546001600160a01b0316156128cd5760405162461bcd60e51b815260206004820152602360248201527f526f626f6375703a20636f6d7065746974696f6e20686173206265656e20746160448201526235b2b760e91b6064820152608401610914565b6000828152601260209081526040808320600501849055338352601690915281206128fb91849190806114a9565b5050600090815260176020526040902080546001600160a01b03191633179055565b60006001600160e01b031982166380ac58cd60e01b148061294e57506001600160e01b03198216635b5e139f60e01b145b8061080757506301ffc9a760e01b6001600160e01b0319831614610807565b600081815260046020526040902080546001600160a01b0319166001600160a01b03841690811790915581906129a28261108c565b6001600160a01b03167f8c5be1e5ebec7d5bd14f71427d1e84f3dd0314c0f7b2291e5b200ac8c7c3b92560405160405180910390a45050565b60008181526001830160205260408120541515610a67565b6000610807825490565b6000818152600260205260408120546001600160a01b0316612a765760405162461bcd60e51b815260206004820152602c60248201527f4552433732313a206f70657261746f7220717565727920666f72206e6f6e657860448201526b34b9ba32b73a103a37b5b2b760a11b6064820152608401610914565b6000612a818361108c565b9050806001600160a01b0316846001600160a01b03161480612abc5750836001600160a01b0316612ab18461089f565b6001600160a01b0316145b80612aec57506001600160a01b0380821660009081526005602090815260408083209388168352929052205460ff165b949350505050565b826001600160a01b0316612b078261108c565b6001600160a01b031614612b6f5760405162461bcd60e51b815260206004820152602960248201527f4552433732313a207472616e73666572206f6620746f6b656e2074686174206960448201526839903737ba1037bbb760b91b6064820152608401610914565b6001600160a01b038216612bd15760405162461bcd60e51b8152602060048201526024808201527f4552433732313a207472616e7366657220746f20746865207a65726f206164646044820152637265737360e01b6064820152608401610914565b612bdc8383836131f3565b612be760008261296d565b6001600160a01b0383166000908152600360205260408120805460019290612c10908490613ebf565b90915550506001600160a01b0382166000908152600360205260408120805460019290612c3e90849061441d565b909155505060008181526002602052604080822080546001600160a01b0319166001600160a01b0386811691821790925591518493918716917fddf252ad1be2c89b69c2b068fc378daa952ba7f163c4a11628f55a4df523b3ef91a4505050565b6000610a67836001600160a01b0384166132ab565b6000610a67836001600160a01b03841661339e565b6000610a6783836133ed565b600a80546001600160a01b038381166001600160a01b0319831681179093556040519116919082907f8be0079c531659141344cd1fd0a4f28419497f9722a3daafe3b4186f6b6457e090600090a35050565b6000610a6783836132ab565b6000610a67838361339e565b816001600160a01b0316836001600160a01b03161415612da15760405162461bcd60e51b815260206004820152601960248201527f4552433732313a20617070726f766520746f2063616c6c6572000000000000006044820152606401610914565b6001600160a01b03838116600081815260056020908152604080832094871680845294825291829020805460ff191686151590811790915591519182527f17307eab39ab6107e8899845ad3d59bd9653f200f220920489ca2b5937696c31910160405180910390a3505050565b612e19848484612af4565b612e2584848484613417565b6113e85760405162461bcd60e51b815260040161091490614435565b606081612e655750506040805180820190915260018152600360fc1b602082015290565b8160005b8115612e8f5780612e7981613ed6565b9150612e889050600a8361449d565b9150612e69565b60008167ffffffffffffffff811115612eaa57612eaa613a85565b6040519080825280601f01601f191660200182016040528015612ed4576020820181803683370190505b5090505b8415612aec57612ee9600183613ebf565b9150612ef6600a866144b1565b612f0190603061441d565b60f81b818381518110612f1657612f16613ef1565b60200101906001600160f81b031916908160001a905350612f38600a8661449d565b9450612ed8565b805160609080612f5f575050604080516020810190915260008152919050565b60006003612f6e83600261441d565b612f78919061449d565b612f839060046144c5565b90506000612f9282602061441d565b67ffffffffffffffff811115612faa57612faa613a85565b6040519080825280601f01601f191660200182016040528015612fd4576020820181803683370190505b509050600060405180606001604052806040815260200161467a604091399050600181016020830160005b86811015613060576003818a01810151603f601282901c8116860151600c83901c8216870151600684901c831688015192909316870151600891821b60ff94851601821b92841692909201901b91160160e01b835260049092019101612fff565b50600386066001811461307a576002811461308b57613097565b613d3d60f01b600119830152613097565b603d60f81b6000198301525b505050918152949350505050565b6001600160a01b0382166130fb5760405162461bcd60e51b815260206004820181905260248201527f4552433732313a206d696e7420746f20746865207a65726f20616464726573736044820152606401610914565b6000818152600260205260409020546001600160a01b0316156131605760405162461bcd60e51b815260206004820152601c60248201527f4552433732313a20746f6b656e20616c7265616479206d696e746564000000006044820152606401610914565b61316c600083836131f3565b6001600160a01b038216600090815260036020526040812080546001929061319590849061441d565b909155505060008181526002602052604080822080546001600160a01b0319166001600160a01b03861690811790915590518392907fddf252ad1be2c89b69c2b068fc378daa952ba7f163c4a11628f55a4df523b3ef908290a45050565b6001600160a01b03831661324e5761324981600880546000838152600960205260408120829055600182018355919091527ff3f7a9fe364faab93b216da50a3214154f22a0a2b415b23a84c8169e8b636ee30155565b613271565b816001600160a01b0316836001600160a01b031614613271576132718382613515565b6001600160a01b03821661328857610a4a816135b2565b826001600160a01b0316826001600160a01b031614610a4a57610a4a8282613661565b600081815260018301602052604081205480156133945760006132cf600183613ebf565b85549091506000906132e390600190613ebf565b905081811461334857600086600001828154811061330357613303613ef1565b906000526020600020015490508087600001848154811061332657613326613ef1565b6000918252602080832090910192909255918252600188019052604090208390555b8554869080613359576133596144e4565b600190038181906000526020600020016000905590558560010160008681526020019081526020016000206000905560019350505050610807565b6000915050610807565b60008181526001830160205260408120546133e557508154600181810184556000848152602080822090930184905584548482528286019093526040902091909155610807565b506000610807565b600082600001828154811061340457613404613ef1565b9060005260206000200154905092915050565b60006001600160a01b0384163b1561350a57604051630a85bd0160e11b81526001600160a01b0385169063150b7a029061345b9033908990889088906004016144fa565b6020604051808303816000875af1925050508015613496575060408051601f3d908101601f1916820190925261349391810190614537565b60015b6134f0573d8080156134c4576040519150601f19603f3d011682016040523d82523d6000602084013e6134c9565b606091505b5080516134e85760405162461bcd60e51b815260040161091490614435565b805181602001fd5b6001600160e01b031916630a85bd0160e11b149050612aec565b506001949350505050565b6000600161352284611103565b61352c9190613ebf565b60008381526007602052604090205490915080821461357f576001600160a01b03841660009081526006602090815260408083208584528252808320548484528184208190558352600790915290208190555b5060009182526007602090815260408084208490556001600160a01b039094168352600681528383209183525290812055565b6008546000906135c490600190613ebf565b600083815260096020526040812054600880549394509092849081106135ec576135ec613ef1565b90600052602060002001549050806008838154811061360d5761360d613ef1565b6000918252602080832090910192909255828152600990915260408082208490558582528120556008805480613645576136456144e4565b6001900381819060005260206000200160009055905550505050565b600061366c83611103565b6001600160a01b039093166000908152600660209081526040808320868452825280832085905593825260079052919091209190915550565b8280546136b190613de8565b90600052602060002090601f0160209004810192826136d35760008555613719565b82601f106136ec57805160ff1916838001178555613719565b82800160010185558215613719579182015b828111156137195782518255916020019190600101906136fe565b50613725929150613751565b5090565b6040518061012001604052806009905b60608152602001906001900390816137395790505090565b5b808211156137255760008155600101613752565b6001600160e01b03198116811461267757600080fd5b60006020828403121561378e57600080fd5b8135610a6781613766565b60005b838110156137b457818101518382015260200161379c565b838111156113e85750506000910152565b600081518084526137dd816020860160208601613799565b601f01601f19169290920160200192915050565b602081526000610a6760208301846137c5565b60006020828403121561381657600080fd5b5035919050565b6001600160a01b038116811461267757600080fd5b6000806040838503121561384557600080fd5b82356138508161381d565b946020939093013593505050565b6000806040838503121561387157600080fd5b50508035926020909101359150565b60008060006060848603121561389557600080fd5b83356138a08161381d565b925060208401356138b08161381d565b929592945050506040919091013590565b801515811461267757600080fd5b600080604083850312156138e257600080fd5b82356138ed8161381d565b915060208301356138fd816138c1565b809150509250929050565b6020808252825182820181905260009190848201906040850190845b8181101561394057835183529284019291840191600101613924565b50909695505050505050565b6000806040838503121561395f57600080fd5b823561396a8161381d565b91506020830135600381106138fd57600080fd5b60006020808301818452808551808352604092508286019150828160051b87010184880160005b83811015613a5a57888303603f1901855281518051845287810151888501528681015187850152606080820151908501526080808201519085015260a0808201519085015260c0808201519085015260e080820151908501526101008082015190850152610120808201516101608287018190529190613a27838801826137c5565b925050506101408083015192508582038187015250613a4681836137c5565b9689019694505050908601906001016139a5565b509098975050505050505050565b600060208284031215613a7a57600080fd5b8135610a678161381d565b634e487b7160e01b600052604160045260246000fd5b604051601f8201601f1916810167ffffffffffffffff81118282101715613ac457613ac4613a85565b604052919050565b600067ffffffffffffffff821115613ae657613ae6613a85565b50601f01601f191660200190565b6000613b07613b0284613acc565b613a9b565b9050828152838383011115613b1b57600080fd5b828260208301376000602084830101529392505050565b600082601f830112613b4357600080fd5b610a6783833560208501613af4565b60008060408385031215613b6557600080fd5b82359150602083013567ffffffffffffffff811115613b8357600080fd5b613b8f85828601613b32565b9150509250929050565b60008060008060808587031215613baf57600080fd5b8435613bba8161381d565b93506020850135613bca8161381d565b925060408501359150606085013567ffffffffffffffff811115613bed57600080fd5b8501601f81018713613bfe57600080fd5b613c0d87823560208401613af4565b91505092959194509250565b600080600080600060a08688031215613c3157600080fd5b85359450602086013593506040860135925060608601359150608086013567ffffffffffffffff811115613c6457600080fd5b613c7088828901613b32565b9150509295509295909350565b60008060408385031215613c9057600080fd5b823567ffffffffffffffff80821115613ca857600080fd5b613cb486838701613b32565b93506020850135915080821115613cca57600080fd5b50613b8f85828601613b32565b634e487b7160e01b600052602160045260246000fd5b6020810160038310613d0f57634e487b7160e01b600052602160045260246000fd5b91905290565b60008060008060808587031215613d2b57600080fd5b5050823594602084013594506040840135936060013592509050565b60008060408385031215613d5a57600080fd5b8235613d658161381d565b915060208301356138fd8161381d565b60006101608d83528c60208401528b60408401528a60608401528960808401528860a08401528760c08401528660e08401528561010084015280610120840152613dc1818401866137c5565b9050828103610140840152613dd681856137c5565b9e9d5050505050505050505050505050565b600181811c90821680613dfc57607f821691505b60208210811415613e1d57634e487b7160e01b600052602260045260246000fd5b50919050565b60208082526031908201527f4552433732313a207472616e736665722063616c6c6572206973206e6f74206f6040820152701ddb995c881b9bdc88185c1c1c9bdd9959607a1b606082015260800190565b6020808252818101527f4f776e61626c653a2063616c6c6572206973206e6f7420746865206f776e6572604082015260600190565b634e487b7160e01b600052601160045260246000fd5b600082821015613ed157613ed1613ea9565b500390565b6000600019821415613eea57613eea613ea9565b5060010190565b634e487b7160e01b600052603260045260246000fd5b600060208284031215613f1957600080fd5b8151610a678161381d565b6020808252601b908201527f526f626f6375703a204e6f74206f776e6572206f6620726f626f740000000000604082015260600190565b60208082526034908201527f526f626f6375703a204e4f542074686520656d756c61746520706c6174666f72604082015273369037b3103a34329031b7b6b832ba34ba34b7b760611b606082015260800190565b60008251613fc1818460208701613799565b9190910192915050565b6d526f626f742e50726f6772616d2360901b8152600085516020613ff582600e8601838b01613799565b8184019150601760f91b80600e840152875161401781600f8601858c01613799565b70565320526f626f742e50726f6772616d2360781b600f9490910193840152865161404781848601858b01613799565b929092018181019290925284516140648160218501888501613799565b91909101602101979650505050505050565b6a29b1b7b9329422b732149d60a91b81526000835161409c81600b850160208801613799565b620101d160ed1b600b9184019182015283516140bf81600e840160208801613799565b01600e01949350505050565b692a34b6b2a9ba30b6b81d60b11b8152600083516140f081600a850160208801613799565b6201016960ed1b600a91840191820152835161411381600d840160208801613799565b01600d01949350505050565b692a34b6b2a9ba30b6b81d60b11b81526000825161414481600a850160208701613799565b6201016960ed1b600a939091019283015250600d01919050565b672637b3a430b9b41d60c11b815260008251614181816008850160208701613799565b9190910160080192915050565b60008a516141a0818460208f01613799565b8a516141b28183860160208f01613799565b8a5191840101906141c7818360208e01613799565b89516141d98183850160208e01613799565b89519290910101906141ef818360208c01613799565b87516142018183850160208c01613799565b8751929091010190614217818360208a01613799565b85516142298183850160208a01613799565b855192909101019061423f818360208801613799565b019b9a5050505050505050505050565b7f7b226e616d65223a2022526f626f63757020436f6d7065746974696f6e20230081526000835161428781601f850160208801613799565b7f222c20226465736372697074696f6e223a2022526f626f63757020636f6d7065601f918401918201527f746974696f6e207265636f7264732074686520626174746c6520626574776565603f8201527f6e20726f626f74732e222c2022696d616765223a2022646174613a696d616765605f8201526f0bdcdd99cade1b5b0ed8985cd94d8d0b60821b607f820152835161432981608f840160208801613799565b61227d60f01b608f9290910191820152609101949350505050565b7f646174613a6170706c69636174696f6e2f6a736f6e3b6261736536342c00000081526000825161437c81601d850160208701613799565b91909101601d0192915050565b60006020828403121561439b57600080fd5b815167ffffffffffffffff8111156143b257600080fd5b8201601f810184136143c357600080fd5b80516143d1613b0282613acc565b8181528560208385010111156143e657600080fd5b6143f7826020830160208601613799565b95945050505050565b60006020828403121561441257600080fd5b8151610a67816138c1565b6000821982111561443057614430613ea9565b500190565b60208082526032908201527f4552433732313a207472616e7366657220746f206e6f6e20455243373231526560408201527131b2b4bb32b91034b6b83632b6b2b73a32b960711b606082015260800190565b634e487b7160e01b600052601260045260246000fd5b6000826144ac576144ac614487565b500490565b6000826144c0576144c0614487565b500690565b60008160001904831182151516156144df576144df613ea9565b500290565b634e487b7160e01b600052603160045260246000fd5b6001600160a01b038581168252841660208201526040810183905260806060820181905260009061452d908301846137c5565b9695505050505050565b60006020828403121561454957600080fd5b8151610a678161376656fe3c2f746578743e3c7465787420783d2231302220793d2236302220636c6173733d2262617365223e3c73766720786d6c6e733d22687474703a2f2f7777772e77332e6f72672f323030302f73766722207072657365727665417370656374526174696f3d22784d696e594d696e206d656574222076696577426f783d223020302033353020333530223e3c7374796c653e2e62617365207b2066696c6c3a2077686974653b20666f6e742d66616d696c793a2073657269663b20666f6e742d73697a653a20313470783b207d3c2f7374796c653e3c726563742077696474683d223130302522206865696768743d2231303025222066696c6c3d22626c61636b22202f3e3c7465787420783d2231302220793d2232302220636c6173733d2262617365223e4142434445464748494a4b4c4d4e4f505152535455565758595a6162636465666768696a6b6c6d6e6f707172737475767778797a303132333435363738392b2f3c2f746578743e3c7465787420783d2231302220793d2234302220636c6173733d2262617365223ea26469706673582212207a073bf5ce6679dcbc6a9cde015b86206ac31c3716e97b7263a65a75b5c02ced64736f6c634300080a0033",
  "linkReferences": {},
  "deployedLinkReferences": {}
}