{
  "_format": "hh-sol-artifact-1",
  "contractName": "Robot",
  "sourceName": "contracts/Robot.sol",
  "abi": [
    {
      "inputs": [
        {
          "internalType": "address",
          "name": "_programContract",
          "type": "address"
        },
        {
          "internalType": "address",
          "name": "_loot",
          "type": "address"
        }
      ],
      "stateMutability": "nonpayable",
      "type": "constructor"
    },
    {
      "anonymous": false,
      "inputs": [
        {
          "indexed": true,
          "internalType": "address",
          "name": "owner",
          "type": "address"
        },
        {
          "indexed": true,
          "internalType": "address",
          "name": "approved",
          "type": "address"
        },
        {
          "indexed": true,
          "internalType": "uint256",
          "name": "tokenId",
          "type": "uint256"
        }
      ],
      "name": "Approval",
      "type": "event"
    },
    {
      "anonymous": false,
      "inputs": [
        {
          "indexed": true,
          "internalType": "address",
          "name": "owner",
          "type": "address"
        },
        {
          "indexed": true,
          "internalType": "address",
          "name": "operator",
          "type": "address"
        },
        {
          "indexed": false,
          "internalType": "bool",
          "name": "approved",
          "type": "bool"
        }
      ],
      "name": "ApprovalForAll",
      "type": "event"
    },
    {
      "anonymous": false,
      "inputs": [
        {
          "indexed": true,
          "internalType": "uint256[]",
          "name": "tokenIds",
          "type": "uint256[]"
        },
        {
          "indexed": false,
          "internalType": "uint256",
          "name": "amount",
          "type": "uint256"
        },
        {
          "indexed": true,
          "internalType": "uint256",
          "name": "priceReceived",
          "type": "uint256"
        },
        {
          "indexed": true,
          "internalType": "uint256",
          "name": "reserveAfterBurn",
          "type": "uint256"
        }
      ],
      "name": "Burned",
      "type": "event"
    },
    {
      "anonymous": false,
      "inputs": [
        {
          "indexed": true,
          "internalType": "uint256[]",
          "name": "tokenIds",
          "type": "uint256[]"
        },
        {
          "indexed": false,
          "internalType": "uint256",
          "name": "amount",
          "type": "uint256"
        },
        {
          "indexed": true,
          "internalType": "uint256",
          "name": "pricePaid",
          "type": "uint256"
        },
        {
          "indexed": true,
          "internalType": "uint256",
          "name": "reserveAfterMint",
          "type": "uint256"
        }
      ],
      "name": "Minted",
      "type": "event"
    },
    {
      "anonymous": false,
      "inputs": [
        {
          "indexed": true,
          "internalType": "address",
          "name": "previousOwner",
          "type": "address"
        },
        {
          "indexed": true,
          "internalType": "address",
          "name": "newOwner",
          "type": "address"
        }
      ],
      "name": "OwnershipTransferred",
      "type": "event"
    },
    {
      "anonymous": false,
      "inputs": [
        {
          "indexed": true,
          "internalType": "address",
          "name": "from",
          "type": "address"
        },
        {
          "indexed": true,
          "internalType": "address",
          "name": "to",
          "type": "address"
        },
        {
          "indexed": true,
          "internalType": "uint256",
          "name": "tokenId",
          "type": "uint256"
        }
      ],
      "name": "Transfer",
      "type": "event"
    },
    {
      "inputs": [
        {
          "internalType": "address",
          "name": "to",
          "type": "address"
        },
        {
          "internalType": "uint256",
          "name": "tokenId",
          "type": "uint256"
        }
      ],
      "name": "approve",
      "outputs": [],
      "stateMutability": "nonpayable",
      "type": "function"
    },
    {
      "inputs": [
        {
          "internalType": "address",
          "name": "owner",
          "type": "address"
        }
      ],
      "name": "balanceOf",
      "outputs": [
        {
          "internalType": "uint256",
          "name": "",
          "type": "uint256"
        }
      ],
      "stateMutability": "view",
      "type": "function"
    },
    {
      "inputs": [
        {
          "internalType": "uint256",
          "name": "_programId",
          "type": "uint256"
        },
        {
          "internalType": "uint256",
          "name": "_robotId",
          "type": "uint256"
        }
      ],
      "name": "bindProgram2Robot",
      "outputs": [],
      "stateMutability": "nonpayable",
      "type": "function"
    },
    {
      "inputs": [
        {
          "internalType": "uint256[]",
          "name": "_tokenIds",
          "type": "uint256[]"
        }
      ],
      "name": "burn",
      "outputs": [],
      "stateMutability": "nonpayable",
      "type": "function"
    },
    {
      "inputs": [
        {
          "internalType": "uint256",
          "name": "_robotId",
          "type": "uint256"
        },
        {
          "internalType": "uint256",
          "name": "_programId",
          "type": "uint256"
        }
      ],
      "name": "checkRobotContainProgram",
      "outputs": [
        {
          "internalType": "bool",
          "name": "",
          "type": "bool"
        }
      ],
      "stateMutability": "view",
      "type": "function"
    },
    {
      "inputs": [],
      "name": "creator",
      "outputs": [
        {
          "internalType": "address payable",
          "name": "",
          "type": "address"
        }
      ],
      "stateMutability": "view",
      "type": "function"
    },
    {
      "inputs": [
        {
          "internalType": "uint256",
          "name": "tokenId",
          "type": "uint256"
        }
      ],
      "name": "getApproved",
      "outputs": [
        {
          "internalType": "address",
          "name": "",
          "type": "address"
        }
      ],
      "stateMutability": "view",
      "type": "function"
    },
    {
      "inputs": [
        {
          "internalType": "uint256",
          "name": "_amount",
          "type": "uint256"
        }
      ],
      "name": "getCurrentPriceToBurn",
      "outputs": [
        {
          "internalType": "uint256",
          "name": "",
          "type": "uint256"
        }
      ],
      "stateMutability": "view",
      "type": "function"
    },
    {
      "inputs": [
        {
          "internalType": "uint256",
          "name": "_amount",
          "type": "uint256"
        }
      ],
      "name": "getCurrentPriceToMint",
      "outputs": [
        {
          "internalType": "uint256",
          "name": "",
          "type": "uint256"
        }
      ],
      "stateMutability": "view",
      "type": "function"
    },
    {
      "inputs": [],
      "name": "getCurrentSupply",
      "outputs": [
        {
          "internalType": "uint256",
          "name": "",
          "type": "uint256"
        }
      ],
      "stateMutability": "view",
      "type": "function"
    },
    {
      "inputs": [
        {
          "internalType": "uint256",
          "name": "_amount",
          "type": "uint256"
        }
      ],
      "name": "getReserveCut",
      "outputs": [
        {
          "internalType": "uint256",
          "name": "",
          "type": "uint256"
        }
      ],
      "stateMutability": "view",
      "type": "function"
    },
    {
      "inputs": [
        {
          "internalType": "uint256",
          "name": "tokenId",
          "type": "uint256"
        }
      ],
      "name": "getRole",
      "outputs": [
        {
          "internalType": "string",
          "name": "",
          "type": "string"
        }
      ],
      "stateMutability": "view",
      "type": "function"
    },
    {
      "inputs": [],
      "name": "initBurnPrice",
      "outputs": [
        {
          "internalType": "uint256",
          "name": "",
          "type": "uint256"
        }
      ],
      "stateMutability": "view",
      "type": "function"
    },
    {
      "inputs": [],
      "name": "initMintPrice",
      "outputs": [
        {
          "internalType": "uint256",
          "name": "",
          "type": "uint256"
        }
      ],
      "stateMutability": "view",
      "type": "function"
    },
    {
      "inputs": [
        {
          "internalType": "address",
          "name": "owner",
          "type": "address"
        },
        {
          "internalType": "address",
          "name": "operator",
          "type": "address"
        }
      ],
      "name": "isApprovedForAll",
      "outputs": [
        {
          "internalType": "bool",
          "name": "",
          "type": "bool"
        }
      ],
      "stateMutability": "view",
      "type": "function"
    },
    {
      "inputs": [],
      "name": "loot",
      "outputs": [
        {
          "internalType": "contract ILoot",
          "name": "",
          "type": "address"
        }
      ],
      "stateMutability": "view",
      "type": "function"
    },
    {
      "inputs": [
        {
          "internalType": "uint256",
          "name": "_amount",
          "type": "uint256"
        },
        {
          "internalType": "uint256",
          "name": "_maxPriceFirstRobot",
          "type": "uint256"
        }
      ],
      "name": "mint",
      "outputs": [
        {
          "internalType": "uint256[]",
          "name": "_tokenIds",
          "type": "uint256[]"
        }
      ],
      "stateMutability": "payable",
      "type": "function"
    },
    {
      "inputs": [],
      "name": "name",
      "outputs": [
        {
          "internalType": "string",
          "name": "",
          "type": "string"
        }
      ],
      "stateMutability": "view",
      "type": "function"
    },
    {
      "inputs": [
        {
          "internalType": "address",
          "name": "operator",
          "type": "address"
        },
        {
          "internalType": "address",
          "name": "from",
          "type": "address"
        },
        {
          "internalType": "uint256[]",
          "name": "ids",
          "type": "uint256[]"
        },
        {
          "internalType": "uint256[]",
          "name": "values",
          "type": "uint256[]"
        },
        {
          "internalType": "bytes",
          "name": "data",
          "type": "bytes"
        }
      ],
      "name": "onERC1155BatchReceived",
      "outputs": [
        {
          "internalType": "bytes4",
          "name": "",
          "type": "bytes4"
        }
      ],
      "stateMutability": "pure",
      "type": "function"
    },
    {
      "inputs": [
        {
          "internalType": "address",
          "name": "operator",
          "type": "address"
        },
        {
          "internalType": "address",
          "name": "from",
          "type": "address"
        },
        {
          "internalType": "uint256",
          "name": "id",
          "type": "uint256"
        },
        {
          "internalType": "uint256",
          "name": "value",
          "type": "uint256"
        },
        {
          "internalType": "bytes",
          "name": "data",
          "type": "bytes"
        }
      ],
      "name": "onERC1155Received",
      "outputs": [
        {
          "internalType": "bytes4",
          "name": "",
          "type": "bytes4"
        }
      ],
      "stateMutability": "pure",
      "type": "function"
    },
    {
      "inputs": [],
      "name": "owner",
      "outputs": [
        {
          "internalType": "address",
          "name": "",
          "type": "address"
        }
      ],
      "stateMutability": "view",
      "type": "function"
    },
    {
      "inputs": [
        {
          "internalType": "uint256",
          "name": "tokenId",
          "type": "uint256"
        }
      ],
      "name": "ownerOf",
      "outputs": [
        {
          "internalType": "address",
          "name": "",
          "type": "address"
        }
      ],
      "stateMutability": "view",
      "type": "function"
    },
    {
      "inputs": [],
      "name": "programContract",
      "outputs": [
        {
          "internalType": "contract IERC1155",
          "name": "",
          "type": "address"
        }
      ],
      "stateMutability": "view",
      "type": "function"
    },
    {
      "inputs": [],
      "name": "renounceOwnership",
      "outputs": [],
      "stateMutability": "nonpayable",
      "type": "function"
    },
    {
      "inputs": [],
      "name": "reserve",
      "outputs": [
        {
          "internalType": "uint256",
          "name": "",
          "type": "uint256"
        }
      ],
      "stateMutability": "view",
      "type": "function"
    },
    {
      "inputs": [],
      "name": "robocup",
      "outputs": [
        {
          "internalType": "contract IRobocupCompetitionPlatform",
          "name": "",
          "type": "address"
        }
      ],
      "stateMutability": "view",
      "type": "function"
    },
    {
      "inputs": [
        {
          "internalType": "address",
          "name": "from",
          "type": "address"
        },
        {
          "internalType": "address",
          "name": "to",
          "type": "address"
        },
        {
          "internalType": "uint256",
          "name": "tokenId",
          "type": "uint256"
        }
      ],
      "name": "safeTransferFrom",
      "outputs": [],
      "stateMutability": "nonpayable",
      "type": "function"
    },
    {
      "inputs": [
        {
          "internalType": "address",
          "name": "from",
          "type": "address"
        },
        {
          "internalType": "address",
          "name": "to",
          "type": "address"
        },
        {
          "internalType": "uint256",
          "name": "tokenId",
          "type": "uint256"
        },
        {
          "internalType": "bytes",
          "name": "_data",
          "type": "bytes"
        }
      ],
      "name": "safeTransferFrom",
      "outputs": [],
      "stateMutability": "nonpayable",
      "type": "function"
    },
    {
      "inputs": [
        {
          "internalType": "address",
          "name": "operator",
          "type": "address"
        },
        {
          "internalType": "bool",
          "name": "approved",
          "type": "bool"
        }
      ],
      "name": "setApprovalForAll",
      "outputs": [],
      "stateMutability": "nonpayable",
      "type": "function"
    },
    {
      "inputs": [
        {
          "internalType": "address payable",
          "name": "_creator",
          "type": "address"
        }
      ],
      "name": "setCreator",
      "outputs": [],
      "stateMutability": "nonpayable",
      "type": "function"
    },
    {
      "inputs": [
        {
          "internalType": "address",
          "name": "_robocup",
          "type": "address"
        }
      ],
      "name": "setRobocup",
      "outputs": [],
      "stateMutability": "nonpayable",
      "type": "function"
    },
    {
      "inputs": [
        {
          "internalType": "bytes4",
          "name": "interfaceId",
          "type": "bytes4"
        }
      ],
      "name": "supportsInterface",
      "outputs": [
        {
          "internalType": "bool",
          "name": "",
          "type": "bool"
        }
      ],
      "stateMutability": "view",
      "type": "function"
    },
    {
      "inputs": [],
      "name": "symbol",
      "outputs": [
        {
          "internalType": "string",
          "name": "",
          "type": "string"
        }
      ],
      "stateMutability": "view",
      "type": "function"
    },
    {
      "inputs": [
        {
          "internalType": "uint256",
          "name": "index",
          "type": "uint256"
        }
      ],
      "name": "tokenByIndex",
      "outputs": [
        {
          "internalType": "uint256",
          "name": "",
          "type": "uint256"
        }
      ],
      "stateMutability": "view",
      "type": "function"
    },
    {
      "inputs": [
        {
          "internalType": "address",
          "name": "owner",
          "type": "address"
        },
        {
          "internalType": "uint256",
          "name": "index",
          "type": "uint256"
        }
      ],
      "name": "tokenOfOwnerByIndex",
      "outputs": [
        {
          "internalType": "uint256",
          "name": "",
          "type": "uint256"
        }
      ],
      "stateMutability": "view",
      "type": "function"
    },
    {
      "inputs": [
        {
          "internalType": "uint256",
          "name": "tokenId",
          "type": "uint256"
        }
      ],
      "name": "tokenURI",
      "outputs": [
        {
          "internalType": "string",
          "name": "",
          "type": "string"
        }
      ],
      "stateMutability": "view",
      "type": "function"
    },
    {
      "inputs": [],
      "name": "totalEverMinted",
      "outputs": [
        {
          "internalType": "uint256",
          "name": "",
          "type": "uint256"
        }
      ],
      "stateMutability": "view",
      "type": "function"
    },
    {
      "inputs": [],
      "name": "totalSupply",
      "outputs": [
        {
          "internalType": "uint256",
          "name": "",
          "type": "uint256"
        }
      ],
      "stateMutability": "view",
      "type": "function"
    },
    {
      "inputs": [
        {
          "internalType": "address",
          "name": "from",
          "type": "address"
        },
        {
          "internalType": "address",
          "name": "to",
          "type": "address"
        },
        {
          "internalType": "uint256",
          "name": "tokenId",
          "type": "uint256"
        }
      ],
      "name": "transferFrom",
      "outputs": [],
      "stateMutability": "nonpayable",
      "type": "function"
    },
    {
      "inputs": [
        {
          "internalType": "address",
          "name": "newOwner",
          "type": "address"
        }
      ],
      "name": "transferOwnership",
      "outputs": [],
      "stateMutability": "nonpayable",
      "type": "function"
    },
    {
      "inputs": [
        {
          "internalType": "uint256",
          "name": "_programId",
          "type": "uint256"
        },
        {
          "internalType": "uint256",
          "name": "_robotId",
          "type": "uint256"
        }
      ],
      "name": "unbindProgramFromRobot",
      "outputs": [],
      "stateMutability": "nonpayable",
      "type": "function"
    }
  ],
  "bytecode": "0x6611c37937e08000600b55660e35fa931a0000600c556000600e819055600f55600460c0908152634d616c6560e01b60e052608090815261014060405260066101009081526546656d616c6560d01b6101205260a05262000065906015906002620001a4565b503480156200007357600080fd5b50604051620041473803806200414783398101604081905262000096916200032a565b6040805180820182526005815264149bd89bdd60da1b6020808301918252835180850190945260038452621093d560ea1b908401528151919291620000de9160009162000208565b508051620000f490600190602084019062000208565b505050620001116200010b6200014e60201b60201c565b62000152565b600d80546001600160a01b03199081163317909155601080546001600160a01b03948516908316179055601480549290931691161790556200039f565b3390565b600a80546001600160a01b038381166001600160a01b0319831681179093556040519116919082907f8be0079c531659141344cd1fd0a4f28419497f9722a3daafe3b4186f6b6457e090600090a35050565b828054828255906000526020600020908101928215620001f6579160200282015b82811115620001f65782518051620001e591849160209091019062000208565b5091602001919060010190620001c5565b506200020492915062000293565b5090565b828054620002169062000362565b90600052602060002090601f0160209004810192826200023a576000855562000285565b82601f106200025557805160ff191683800117855562000285565b8280016001018555821562000285579182015b828111156200028557825182559160200191906001019062000268565b5062000204929150620002b4565b8082111562000204576000620002aa8282620002cb565b5060010162000293565b5b80821115620002045760008155600101620002b5565b508054620002d99062000362565b6000825580601f10620002ea575050565b601f0160209004906000526020600020908101906200030a9190620002b4565b50565b80516001600160a01b03811681146200032557600080fd5b919050565b600080604083850312156200033e57600080fd5b62000349836200030d565b915062000359602084016200030d565b90509250929050565b600181811c908216806200037757607f821691505b602082108114156200039957634e487b7160e01b600052602260045260246000fd5b50919050565b613d9880620003af6000396000f3fe6080604052600436106102465760003560e01c80635d9be39a11610139578063a22cb465116100b6578063c87b56dd1161007a578063c87b56dd146106df578063cd3293de146106ff578063e985e9c514610715578063f18b01ad1461075e578063f23a6e611461077e578063f2fde38b146107c457600080fd5b8063a22cb465146105fe578063b80f55c91461061e578063b88d4fde1461063e578063bad6aa7a1461065e578063bc197c811461067e57600080fd5b80638da5cb5b116100fd5780638da5cb5b14610575578063924808b41461059357806395d89b41146105a95780639b7b2ab0146105be578063a0b87c5f146105de57600080fd5b80635d9be39a146104e05780636352211e1461050057806370a0823114610520578063715018a614610540578063808c5e381461055557600080fd5b80632b7f4bad116101c7578063482b760f1161018b578063482b760f1461044b5780634f3e1efc1461046b5780634f6ccce7146104805780635312fdc2146104a05780635826b033146104c057600080fd5b80632b7f4bad146103b55780632e8ad69f146103d55780632f745c59146103eb5780633f5160181461040b57806342842e0e1461042b57600080fd5b806309804a951161020e57806309804a951461031c5780631649229f1461033c57806318160ddd146103605780631b2ef1ca1461037557806323b872dd1461039557600080fd5b806301ffc9a71461024b57806302d05d3f1461028057806306fdde03146102b8578063081812fc146102da578063095ea7b3146102fa575b600080fd5b34801561025757600080fd5b5061026b610266366004612e30565b6107e4565b60405190151581526020015b60405180910390f35b34801561028c57600080fd5b50600d546102a0906001600160a01b031681565b6040516001600160a01b039091168152602001610277565b3480156102c457600080fd5b506102cd61080f565b6040516102779190612ea5565b3480156102e657600080fd5b506102a06102f5366004612eb8565b6108a1565b34801561030657600080fd5b5061031a610315366004612ee6565b61093b565b005b34801561032857600080fd5b5061026b610337366004612f12565b610a51565b34801561034857600080fd5b50610352600b5481565b604051908152602001610277565b34801561036c57600080fd5b50600854610352565b610388610383366004612f12565b610a70565b6040516102779190612f34565b3480156103a157600080fd5b5061031a6103b0366004612f78565b610e0d565b3480156103c157600080fd5b5061031a6103d0366004612f12565b610e3e565b3480156103e157600080fd5b50610352600c5481565b3480156103f757600080fd5b50610352610406366004612ee6565b61109c565b34801561041757600080fd5b5061031a610426366004612fb9565b611132565b34801561043757600080fd5b5061031a610446366004612f78565b61117e565b34801561045757600080fd5b506010546102a0906001600160a01b031681565b34801561047757600080fd5b50610352611199565b34801561048c57600080fd5b5061035261049b366004612eb8565b6111a9565b3480156104ac57600080fd5b506102cd6104bb366004612eb8565b61123c565b3480156104cc57600080fd5b506103526104db366004612eb8565b6112b5565b3480156104ec57600080fd5b506013546102a0906001600160a01b031681565b34801561050c57600080fd5b506102a061051b366004612eb8565b611320565b34801561052c57600080fd5b5061035261053b366004612fb9565b611397565b34801561054c57600080fd5b5061031a61141e565b34801561056157600080fd5b50610352610570366004612eb8565b611454565b34801561058157600080fd5b50600a546001600160a01b03166102a0565b34801561059f57600080fd5b50610352600e5481565b3480156105b557600080fd5b506102cd61145f565b3480156105ca57600080fd5b506014546102a0906001600160a01b031681565b3480156105ea57600080fd5b5061031a6105f9366004612f12565b61146e565b34801561060a57600080fd5b5061031a610619366004612fe4565b6116a4565b34801561062a57600080fd5b5061031a610639366004613064565b6116b3565b34801561064a57600080fd5b5061031a610659366004613132565b611854565b34801561066a57600080fd5b5061031a610679366004612fb9565b61188c565b34801561068a57600080fd5b506106c661069936600461326f565b7fc5d2460186f7233c927e7db2dcc703c0e500b653ca82273b7bfad8045d85a47098975050505050505050565b6040516001600160e01b03199091168152602001610277565b3480156106eb57600080fd5b506102cd6106fa366004612eb8565b6118d8565b34801561070b57600080fd5b50610352600f5481565b34801561072157600080fd5b5061026b61073036600461332e565b6001600160a01b03918216600090815260056020908152604080832093909416825291909152205460ff1690565b34801561076a57600080fd5b50610352610779366004612eb8565b611f1f565b34801561078a57600080fd5b506106c661079936600461335c565b7ff23a6e612e1ff4830e658fe43f4e3cb4a5f8170bd5d9e69fb5d7a7fa9e4fdf979695505050505050565b3480156107d057600080fd5b5061031a6107df366004612fb9565b611f6e565b60006001600160e01b0319821663780e9d6360e01b1480610809575061080982612009565b92915050565b60606000805461081e906133d8565b80601f016020809104026020016040519081016040528092919081815260200182805461084a906133d8565b80156108975780601f1061086c57610100808354040283529160200191610897565b820191906000526020600020905b81548152906001019060200180831161087a57829003601f168201915b5050505050905090565b6000818152600260205260408120546001600160a01b031661091f5760405162461bcd60e51b815260206004820152602c60248201527f4552433732313a20617070726f76656420717565727920666f72206e6f6e657860448201526b34b9ba32b73a103a37b5b2b760a11b60648201526084015b60405180910390fd5b506000908152600460205260409020546001600160a01b031690565b600061094682611320565b9050806001600160a01b0316836001600160a01b031614156109b45760405162461bcd60e51b815260206004820152602160248201527f4552433732313a20617070726f76616c20746f2063757272656e74206f776e656044820152603960f91b6064820152608401610916565b336001600160a01b03821614806109d057506109d08133610730565b610a425760405162461bcd60e51b815260206004820152603860248201527f4552433732313a20617070726f76652063616c6c6572206973206e6f74206f7760448201527f6e6572206e6f7220617070726f76656420666f7220616c6c00000000000000006064820152608401610916565b610a4c8383612059565b505050565b6000828152601160205260408120610a6990836120c7565b9392505050565b6060333214610ab35760405162461bcd60e51b815260206004820152600f60248201526e526f626f743a206f6e6c7920454f4160881b6044820152606401610916565b60008311610b145760405162461bcd60e51b815260206004820152602860248201527f526f626f743a205f616d6f756e74206d757374206265206c617267657220746860448201526730b7103d32b9379760c11b6064820152608401610916565b6000610b206001611f1f565b905082811115610b855760405162461bcd60e51b815260206004820152602a60248201527f526f626f743a20507269636520646f6573204e4f54206d6174636820796f75726044820152691032bc3832b1ba32b21760b11b6064820152608401610916565b600084600114610b9d57610b9885611f1f565b610b9f565b815b905080341015610bf15760405162461bcd60e51b815260206004820152601a60248201527f526f626f743a204e6f7420656e6f756768204554482073656e740000000000006044820152606401610916565b8467ffffffffffffffff811115610c0a57610c0a61301d565b604051908082528060200260200182016040528015610c33578160200160208202803683370190505b50925060005b85811015610d0d576000600e544233604051602001610c7d93929190928352602083019190915260601b6bffffffffffffffffffffffff1916604082015260540190565b6040516020818303038152906040528051906020012090508060001c63ffffffff16858381518110610cb157610cb1613413565b602002602001018181525050610ce033868481518110610cd357610cd3613413565b60200260200101516120df565b6001600e6000828254610cf3919061343f565b90915550829150610d05905081613457565b915050610c39565b506000610d1986611454565b600f54909150610d29908261222d565b600f55600d546001600160a01b03166108fc610d458484612239565b6040518115909202916000818181858888f19350505050158015610d6d573d6000803e3d6000fd5b506000610d7a3484612239565b1115610db857336108fc610d8e3485612239565b6040518115909202916000818181858888f19350505050158015610db6573d6000803e3d6000fd5b505b600f548285604051610dca9190613472565b604051908190038120898252907ff5705be7282ecd6328040667ea73761f5120f58ecefc8ee9b4145bf14d9a52709060200160405180910390a450505092915050565b610e173382612245565b610e335760405162461bcd60e51b8152600401610916906134a8565b610a4c83838361233c565b610e4781611320565b6001600160a01b0316336001600160a01b031614610ea75760405162461bcd60e51b815260206004820152601e60248201527f526f626f743a20726f626f74204e4f542062656c6f6e6720746f20796f7500006044820152606401610916565b6000818152601160205260409020610ebf90836120c7565b610f235760405162461bcd60e51b815260206004820152602f60248201527f526f626f743a207468652070726f6772616d20686173204e4f54206265656e2060448201526e189bdd5b99081d1a19481c9bd89bdd608a1b6064820152608401610916565b6013546040516309804a9560e01b815260048101839052602481018490526001600160a01b03909116906309804a9590604401602060405180830381865afa158015610f73573d6000803e3d6000fd5b505050506040513d601f19601f82011682018060405250810190610f9791906134f9565b1561100257601354604051630e62311560e31b815260048101839052602481018490526001600160a01b039091169063731188a890604401600060405180830381600087803b158015610fe957600080fd5b505af1158015610ffd573d6000803e3d6000fd5b505050505b601054604051637921219560e11b81526001600160a01b039091169063f242432a9061103990309033908790600190600401613516565b600060405180830381600087803b15801561105357600080fd5b505af1158015611067573d6000803e3d6000fd5b50505060008281526011602052604090206110839150836124e7565b506000828152601260205260409020610a4c90826124e7565b60006110a783611397565b82106111095760405162461bcd60e51b815260206004820152602b60248201527f455243373231456e756d657261626c653a206f776e657220696e646578206f7560448201526a74206f6620626f756e647360a81b6064820152608401610916565b506001600160a01b03919091166000908152600660209081526040808320938352929052205490565b600a546001600160a01b0316331461115c5760405162461bcd60e51b81526004016109169061354e565b600d80546001600160a01b0319166001600160a01b0392909216919091179055565b610a4c83838360405180602001604052806000815250611854565b60006111a460085490565b905090565b60006111b460085490565b82106112175760405162461bcd60e51b815260206004820152602c60248201527f455243373231456e756d657261626c653a20676c6f62616c20696e646578206f60448201526b7574206f6620626f756e647360a01b6064820152608401610916565b6008828154811061122a5761122a613413565b90600052602060002001549050919050565b601454604051634b77b8eb60e01b81526060916001600160a01b031690634b77b8eb90611270908590601590600401613583565b600060405180830381865afa15801561128d573d6000803e3d6000fd5b505050506040513d6000823e601f3d908101601f191682016040526108099190810190613696565b6000806112c0611199565b9050806112d05750600092915050565b6000805b848110156113185760006112f6600c5483866112f0919061370d565b906124f3565b9050611302838261222d565b925050808061131090613457565b9150506112d4565b509392505050565b6000818152600260205260408120546001600160a01b0316806108095760405162461bcd60e51b815260206004820152602960248201527f4552433732313a206f776e657220717565727920666f72206e6f6e657869737460448201526832b73a103a37b5b2b760b91b6064820152608401610916565b60006001600160a01b0382166114025760405162461bcd60e51b815260206004820152602a60248201527f4552433732313a2062616c616e636520717565727920666f7220746865207a65604482015269726f206164647265737360b01b6064820152608401610916565b506001600160a01b031660009081526003602052604090205490565b600a546001600160a01b031633146114485760405162461bcd60e51b81526004016109169061354e565b61145260006124ff565b565b6000610809826112b5565b60606001805461081e906133d8565b601054604051627eeac760e11b8152336004820152602481018490526000916001600160a01b03169062fdd58e90604401602060405180830381865afa1580156114bc573d6000803e3d6000fd5b505050506040513d601f19601f820116820180604052508101906114e09190613724565b1161152d5760405162461bcd60e51b815260206004820152601a60248201527f526f626f743a20796f752068617665206e6f2070726f6772616d0000000000006044820152606401610916565b61153681611320565b6001600160a01b0316336001600160a01b0316146115965760405162461bcd60e51b815260206004820152601e60248201527f526f626f743a20726f626f74204e4f542062656c6f6e6720746f20796f7500006044820152606401610916565b60008181526011602052604090206115ae90836120c7565b1561160a5760405162461bcd60e51b815260206004820152602660248201527f526f626f743a2074686520726f626f742068617320626f756e64207468652070604482015265726f6772616d60d01b6064820152608401610916565b601054604051637921219560e11b81526001600160a01b039091169063f242432a9061164190339030908790600190600401613516565b600060405180830381600087803b15801561165b57600080fd5b505af115801561166f573d6000803e3d6000fd5b505050600082815260116020526040902061168b915083612551565b506000828152601260205260409020610a4c9082612551565b6116af33838361255d565b5050565b3332146116f45760405162461bcd60e51b815260206004820152600f60248201526e526f626f743a206f6e6c7920454f4160881b6044820152606401610916565b600061170082516112b5565b905060005b82518110156117c45761173083828151811061172357611723613413565b6020026020010151611320565b6001600160a01b0316336001600160a01b0316146117905760405162461bcd60e51b815260206004820152601c60248201527f526f626f743a204e6f742074686520636f7272656374206f776e6572000000006044820152606401610916565b6117b28382815181106117a5576117a5613413565b602002602001015161262c565b806117bc81613457565b915050611705565b50600f546117d29082612239565b600f55604051339082156108fc029083906000818181858888f19350505050158015611802573d6000803e3d6000fd5b50600f5481836040516118159190613472565b60405190819003812085518252907fc4f0ab9a1e75e794af20b71e07383c194780132094987b97038b2a274a5352dd9060200160405180910390a45050565b61185e3383612245565b61187a5760405162461bcd60e51b8152600401610916906134a8565b611886848484846126d3565b50505050565b600a546001600160a01b031633146118b65760405162461bcd60e51b81526004016109169061354e565b601380546001600160a01b0319166001600160a01b0392909216919091179055565b60606118e2612df2565b60405180610120016040528060fd8152602001613bac60fd91398152601454604051639e41b73f60e01b8152600481018590526001600160a01b0390911690639e41b73f90602401600060405180830381865afa158015611947573d6000803e3d6000fd5b505050506040513d6000823e601f3d908101601f1916820160405261196f9190810190613696565b8160016020020181905250604051806060016040528060288152602001613d126028913981600260200201526014546040516377b403ad60e11b8152600481018590526001600160a01b039091169063ef68075a90602401600060405180830381865afa1580156119e4573d6000803e3d6000fd5b505050506040513d6000823e601f3d908101601f19168201604052611a0c9190810190613696565b6060808301919091526040805191820190526028808252613ae160208301396080820152601454604051639720c96960e01b8152600481018590526001600160a01b0390911690639720c96990602401600060405180830381865afa158015611a79573d6000803e3d6000fd5b505050506040513d6000823e601f3d908101601f19168201604052611aa19190810190613696565b60a082015260408051606081019091526028808252613b5b602083013960c0820152601454604051639bdc1b6960e01b8152600481018590526001600160a01b0390911690639bdc1b6990602401600060405180830381865afa158015611b0c573d6000803e3d6000fd5b505050506040513d6000823e601f3d908101601f19168201604052611b349190810190613696565b60e082015260408051606081019091526029808252613b836020830139610100820152601454604051630e99990d60e01b8152600481018590526001600160a01b0390911690630e99990d90602401600060405180830381865afa158015611ba0573d6000803e3d6000fd5b505050506040513d6000823e601f3d908101601f19168201604052611bc89190810190613696565b61012082015260408051606081019091526029808252613b326020830139610140820152601454604051636a3f934f60e11b8152600481018590526001600160a01b039091169063d47f269e90602401600060405180830381865afa158015611c35573d6000803e3d6000fd5b505050506040513d6000823e601f3d908101601f19168201604052611c5d9190810190613696565b61016082015260408051606081019091526029808252613ca96020830139610180820152601454604051630ce4135560e31b8152600481018590526001600160a01b03909116906367209aa890602401600060405180830381865afa158015611cca573d6000803e3d6000fd5b505050506040513d6000823e601f3d908101601f19168201604052611cf29190810190613696565b6101a082015260408051606081019091526029808252613b0960208301396101c082015260145460405163c08a5dd560e01b8152600481018590526001600160a01b039091169063c08a5dd590602401600060405180830381865afa158015611d5f573d6000803e3d6000fd5b505050506040513d6000823e601f3d908101601f19168201604052611d879190810190613696565b6101e082015260408051606081019091526029808252613d3a6020830139610200820152611db48361123c565b610220820152604080518082018252600d81526c1e17ba32bc3a1f1e17b9bb339f60991b602080830191909152610240840191909152825181840151838501516060860151608087015160a088015160c089015160e08a01516101008b0151995160009a611e249a90910161373d565b60408051808303601f19018152908290526101208401516101408501516101608601516101808701516101a08801516101c08901516101e08a01516102008b0151979950611e77988a989060200161373d565b60408051808303601f1901815290829052610220840151610240850151919350611ea6928492906020016137fe565b60405160208183030381529060405290506000611ef3611ec586612706565b611ece84612804565b604051602001611edf929190613841565b604051602081830303815290604052612804565b905080604051602001611f06919061397c565b60408051601f1981840301815291905295945050505050565b600080611f2a611199565b9050600060015b848111611318576000611f4c600b5483866112f0919061343f565b9050611f58838261222d565b9250508080611f6690613457565b915050611f31565b600a546001600160a01b03163314611f985760405162461bcd60e51b81526004016109169061354e565b6001600160a01b038116611ffd5760405162461bcd60e51b815260206004820152602660248201527f4f776e61626c653a206e6577206f776e657220697320746865207a65726f206160448201526564647265737360d01b6064820152608401610916565b612006816124ff565b50565b60006001600160e01b031982166380ac58cd60e01b148061203a57506001600160e01b03198216635b5e139f60e01b145b8061080957506301ffc9a760e01b6001600160e01b0319831614610809565b600081815260046020526040902080546001600160a01b0319166001600160a01b038416908117909155819061208e82611320565b6001600160a01b03167f8c5be1e5ebec7d5bd14f71427d1e84f3dd0314c0f7b2291e5b200ac8c7c3b92560405160405180910390a45050565b60008181526001830160205260408120541515610a69565b6001600160a01b0382166121355760405162461bcd60e51b815260206004820181905260248201527f4552433732313a206d696e7420746f20746865207a65726f20616464726573736044820152606401610916565b6000818152600260205260409020546001600160a01b03161561219a5760405162461bcd60e51b815260206004820152601c60248201527f4552433732313a20746f6b656e20616c7265616479206d696e746564000000006044820152606401610916565b6121a66000838361296a565b6001600160a01b03821660009081526003602052604081208054600192906121cf90849061343f565b909155505060008181526002602052604080822080546001600160a01b0319166001600160a01b03861690811790915590518392907fddf252ad1be2c89b69c2b068fc378daa952ba7f163c4a11628f55a4df523b3ef908290a45050565b6000610a69828461343f565b6000610a69828461370d565b6000818152600260205260408120546001600160a01b03166122be5760405162461bcd60e51b815260206004820152602c60248201527f4552433732313a206f70657261746f7220717565727920666f72206e6f6e657860448201526b34b9ba32b73a103a37b5b2b760a11b6064820152608401610916565b60006122c983611320565b9050806001600160a01b0316846001600160a01b031614806123045750836001600160a01b03166122f9846108a1565b6001600160a01b0316145b8061233457506001600160a01b0380821660009081526005602090815260408083209388168352929052205460ff165b949350505050565b826001600160a01b031661234f82611320565b6001600160a01b0316146123b75760405162461bcd60e51b815260206004820152602960248201527f4552433732313a207472616e73666572206f6620746f6b656e2074686174206960448201526839903737ba1037bbb760b91b6064820152608401610916565b6001600160a01b0382166124195760405162461bcd60e51b8152602060048201526024808201527f4552433732313a207472616e7366657220746f20746865207a65726f206164646044820152637265737360e01b6064820152608401610916565b61242483838361296a565b61242f600082612059565b6001600160a01b038316600090815260036020526040812080546001929061245890849061370d565b90915550506001600160a01b038216600090815260036020526040812080546001929061248690849061343f565b909155505060008181526002602052604080822080546001600160a01b0319166001600160a01b0386811691821790925591518493918716917fddf252ad1be2c89b69c2b068fc378daa952ba7f163c4a11628f55a4df523b3ef91a4505050565b6000610a698383612a22565b6000610a6982846139c1565b600a80546001600160a01b038381166001600160a01b0319831681179093556040519116919082907f8be0079c531659141344cd1fd0a4f28419497f9722a3daafe3b4186f6b6457e090600090a35050565b6000610a698383612b15565b816001600160a01b0316836001600160a01b031614156125bf5760405162461bcd60e51b815260206004820152601960248201527f4552433732313a20617070726f766520746f2063616c6c6572000000000000006044820152606401610916565b6001600160a01b03838116600081815260056020908152604080832094871680845294825291829020805460ff191686151590811790915591519182527f17307eab39ab6107e8899845ad3d59bd9653f200f220920489ca2b5937696c31910160405180910390a3505050565b600061263782611320565b90506126458160008461296a565b612650600083612059565b6001600160a01b038116600090815260036020526040812080546001929061267990849061370d565b909155505060008281526002602052604080822080546001600160a01b0319169055518391906001600160a01b038416907fddf252ad1be2c89b69c2b068fc378daa952ba7f163c4a11628f55a4df523b3ef908390a45050565b6126de84848461233c565b6126ea84848484612b64565b6118865760405162461bcd60e51b8152600401610916906139e0565b60608161272a5750506040805180820190915260018152600360fc1b602082015290565b8160005b8115612754578061273e81613457565b915061274d9050600a83613a48565b915061272e565b60008167ffffffffffffffff81111561276f5761276f61301d565b6040519080825280601f01601f191660200182016040528015612799576020820181803683370190505b5090505b8415612334576127ae60018361370d565b91506127bb600a86613a5c565b6127c690603061343f565b60f81b8183815181106127db576127db613413565b60200101906001600160f81b031916908160001a9053506127fd600a86613a48565b945061279d565b805160609080612824575050604080516020810190915260008152919050565b6000600361283383600261343f565b61283d9190613a48565b6128489060046139c1565b9050600061285782602061343f565b67ffffffffffffffff81111561286f5761286f61301d565b6040519080825280601f01601f191660200182016040528015612899576020820181803683370190505b5090506000604051806060016040528060408152602001613cd2604091399050600181016020830160005b86811015612925576003818a01810151603f601282901c8116860151600c83901c8216870151600684901c831688015192909316870151600891821b60ff94851601821b92841692909201901b91160160e01b8352600490920191016128c4565b50600386066001811461293f57600281146129505761295c565b613d3d60f01b60011983015261295c565b603d60f81b6000198301525b505050918152949350505050565b6001600160a01b0383166129c5576129c081600880546000838152600960205260408120829055600182018355919091527ff3f7a9fe364faab93b216da50a3214154f22a0a2b415b23a84c8169e8b636ee30155565b6129e8565b816001600160a01b0316836001600160a01b0316146129e8576129e88382612c62565b6001600160a01b0382166129ff57610a4c81612cff565b826001600160a01b0316826001600160a01b031614610a4c57610a4c8282612dae565b60008181526001830160205260408120548015612b0b576000612a4660018361370d565b8554909150600090612a5a9060019061370d565b9050818114612abf576000866000018281548110612a7a57612a7a613413565b9060005260206000200154905080876000018481548110612a9d57612a9d613413565b6000918252602080832090910192909255918252600188019052604090208390555b8554869080612ad057612ad0613a70565b600190038181906000526020600020016000905590558560010160008681526020019081526020016000206000905560019350505050610809565b6000915050610809565b6000818152600183016020526040812054612b5c57508154600181810184556000848152602080822090930184905584548482528286019093526040902091909155610809565b506000610809565b60006001600160a01b0384163b15612c5757604051630a85bd0160e11b81526001600160a01b0385169063150b7a0290612ba8903390899088908890600401613a86565b6020604051808303816000875af1925050508015612be3575060408051601f3d908101601f19168201909252612be091810190613ac3565b60015b612c3d573d808015612c11576040519150601f19603f3d011682016040523d82523d6000602084013e612c16565b606091505b508051612c355760405162461bcd60e51b8152600401610916906139e0565b805181602001fd5b6001600160e01b031916630a85bd0160e11b149050612334565b506001949350505050565b60006001612c6f84611397565b612c79919061370d565b600083815260076020526040902054909150808214612ccc576001600160a01b03841660009081526006602090815260408083208584528252808320548484528184208190558352600790915290208190555b5060009182526007602090815260408084208490556001600160a01b039094168352600681528383209183525290812055565b600854600090612d119060019061370d565b60008381526009602052604081205460088054939450909284908110612d3957612d39613413565b906000526020600020015490508060088381548110612d5a57612d5a613413565b6000918252602080832090910192909255828152600990915260408082208490558582528120556008805480612d9257612d92613a70565b6001900381819060005260206000200160009055905550505050565b6000612db983611397565b6001600160a01b039093166000908152600660209081526040808320868452825280832085905593825260079052919091209190915550565b6040518061026001604052806013905b6060815260200190600190039081612e025790505090565b6001600160e01b03198116811461200657600080fd5b600060208284031215612e4257600080fd5b8135610a6981612e1a565b60005b83811015612e68578181015183820152602001612e50565b838111156118865750506000910152565b60008151808452612e91816020860160208601612e4d565b601f01601f19169290920160200192915050565b602081526000610a696020830184612e79565b600060208284031215612eca57600080fd5b5035919050565b6001600160a01b038116811461200657600080fd5b60008060408385031215612ef957600080fd5b8235612f0481612ed1565b946020939093013593505050565b60008060408385031215612f2557600080fd5b50508035926020909101359150565b6020808252825182820181905260009190848201906040850190845b81811015612f6c57835183529284019291840191600101612f50565b50909695505050505050565b600080600060608486031215612f8d57600080fd5b8335612f9881612ed1565b92506020840135612fa881612ed1565b929592945050506040919091013590565b600060208284031215612fcb57600080fd5b8135610a6981612ed1565b801515811461200657600080fd5b60008060408385031215612ff757600080fd5b823561300281612ed1565b9150602083013561301281612fd6565b809150509250929050565b634e487b7160e01b600052604160045260246000fd5b604051601f8201601f1916810167ffffffffffffffff8111828210171561305c5761305c61301d565b604052919050565b6000602080838503121561307757600080fd5b823567ffffffffffffffff8082111561308f57600080fd5b818501915085601f8301126130a357600080fd5b8135818111156130b5576130b561301d565b8060051b91506130c6848301613033565b81815291830184019184810190888411156130e057600080fd5b938501935b838510156130fe578435825293850193908501906130e5565b98975050505050505050565b600067ffffffffffffffff8211156131245761312461301d565b50601f01601f191660200190565b6000806000806080858703121561314857600080fd5b843561315381612ed1565b9350602085013561316381612ed1565b925060408501359150606085013567ffffffffffffffff81111561318657600080fd5b8501601f8101871361319757600080fd5b80356131aa6131a58261310a565b613033565b8181528860208385010111156131bf57600080fd5b8160208401602083013760006020838301015280935050505092959194509250565b60008083601f8401126131f357600080fd5b50813567ffffffffffffffff81111561320b57600080fd5b6020830191508360208260051b850101111561322657600080fd5b9250929050565b60008083601f84011261323f57600080fd5b50813567ffffffffffffffff81111561325757600080fd5b60208301915083602082850101111561322657600080fd5b60008060008060008060008060a0898b03121561328b57600080fd5b883561329681612ed1565b975060208901356132a681612ed1565b9650604089013567ffffffffffffffff808211156132c357600080fd5b6132cf8c838d016131e1565b909850965060608b01359150808211156132e857600080fd5b6132f48c838d016131e1565b909650945060808b013591508082111561330d57600080fd5b5061331a8b828c0161322d565b999c989b5096995094979396929594505050565b6000806040838503121561334157600080fd5b823561334c81612ed1565b9150602083013561301281612ed1565b60008060008060008060a0878903121561337557600080fd5b863561338081612ed1565b9550602087013561339081612ed1565b94506040870135935060608701359250608087013567ffffffffffffffff8111156133ba57600080fd5b6133c689828a0161322d565b979a9699509497509295939492505050565b600181811c908216806133ec57607f821691505b6020821081141561340d57634e487b7160e01b600052602260045260246000fd5b50919050565b634e487b7160e01b600052603260045260246000fd5b634e487b7160e01b600052601160045260246000fd5b6000821982111561345257613452613429565b500190565b600060001982141561346b5761346b613429565b5060010190565b815160009082906020808601845b8381101561349c57815185529382019390820190600101613480565b50929695505050505050565b60208082526031908201527f4552433732313a207472616e736665722063616c6c6572206973206e6f74206f6040820152701ddb995c881b9bdc88185c1c1c9bdd9959607a1b606082015260800190565b60006020828403121561350b57600080fd5b8151610a6981612fd6565b6001600160a01b0394851681529290931660208301526040820152606081019190915260a06080820181905260009082015260c00190565b6020808252818101527f4f776e61626c653a2063616c6c6572206973206e6f7420746865206f776e6572604082015260600190565b828152600060206060818401526004606084015263524f4c4560e01b608084015260a0830160a0604085015280855480835260c08601915060c08160051b87010192506000878152848120815b838110156136875788860360bf1901855281548390600181811c90808316806135fa57607f831692505b8b831081141561361857634e487b7160e01b88526022600452602488fd5b828b5260208b0181801561363357600181146136445761366e565b60ff19861682528d8201965061366e565b6000898152602090208a5b8681101561366857815484820152908501908f0161364f565b83019750505b50949a5050978a019794909401935050506001016135d0565b50939998505050505050505050565b6000602082840312156136a857600080fd5b815167ffffffffffffffff8111156136bf57600080fd5b8201601f810184136136d057600080fd5b80516136de6131a58261310a565b8181528560208385010111156136f357600080fd5b613704826020830160208601612e4d565b95945050505050565b60008282101561371f5761371f613429565b500390565b60006020828403121561373657600080fd5b5051919050565b60008a5161374f818460208f01612e4d565b8a516137618183860160208f01612e4d565b8a519184010190613776818360208e01612e4d565b89516137888183850160208e01612e4d565b895192909101019061379e818360208c01612e4d565b87516137b08183850160208c01612e4d565b87519290910101906137c6818360208a01612e4d565b85516137d88183850160208a01612e4d565b85519290910101906137ee818360208801612e4d565b019b9a5050505050505050505050565b60008451613810818460208901612e4d565b845190830190613824818360208901612e4d565b8451910190613837818360208801612e4d565b0195945050505050565b707b226e616d65223a2022526f626f74202360781b8152825160009061386e816011850160208801612e4d565b7f222c20226465736372697074696f6e223a2022526f626f742069732072616e646011918401918201527f6f6d6c792067656e657261746564204e465420776974682065717569706d656e60318201527f742c20616e642063616e2061737369676e2050726f6772616d204e465473207460518201527f6f20726f626f742c207468757320726f626f742063616e20676574206365727460718201527f61696e206162696c69746965732e222c2022696d616765223a2022646174613a6091820152741a5b5859d94bdcdd99cade1b5b0ed8985cd94d8d0b605a1b60b182015283516139618160c6840160208801612e4d565b61227d60f01b60c6929091019182015260c801949350505050565b7f646174613a6170706c69636174696f6e2f6a736f6e3b6261736536342c0000008152600082516139b481601d850160208701612e4d565b91909101601d0192915050565b60008160001904831182151516156139db576139db613429565b500290565b60208082526032908201527f4552433732313a207472616e7366657220746f206e6f6e20455243373231526560408201527131b2b4bb32b91034b6b83632b6b2b73a32b960711b606082015260800190565b634e487b7160e01b600052601260045260246000fd5b600082613a5757613a57613a32565b500490565b600082613a6b57613a6b613a32565b500690565b634e487b7160e01b600052603160045260246000fd5b6001600160a01b0385811682528416602082015260408101839052608060608201819052600090613ab990830184612e79565b9695505050505050565b600060208284031215613ad557600080fd5b8151610a6981612e1a56fe3c2f746578743e3c7465787420783d2231302220793d2236302220636c6173733d2262617365223e3c2f746578743e3c7465787420783d2231302220793d223136302220636c6173733d2262617365223e3c2f746578743e3c7465787420783d2231302220793d223132302220636c6173733d2262617365223e3c2f746578743e3c7465787420783d2231302220793d2238302220636c6173733d2262617365223e3c2f746578743e3c7465787420783d2231302220793d223130302220636c6173733d2262617365223e3c73766720786d6c6e733d22687474703a2f2f7777772e77332e6f72672f323030302f73766722207072657365727665417370656374526174696f3d22784d696e594d696e206d656574222076696577426f783d223020302033353020333530223e3c7374796c653e2e62617365207b2066696c6c3a2077686974653b20666f6e742d66616d696c793a2073657269663b20666f6e742d73697a653a20313470783b207d3c2f7374796c653e3c726563742077696474683d223130302522206865696768743d2231303025222066696c6c3d22626c61636b22202f3e3c7465787420783d2231302220793d2232302220636c6173733d2262617365223e3c2f746578743e3c7465787420783d2231302220793d223134302220636c6173733d2262617365223e4142434445464748494a4b4c4d4e4f505152535455565758595a6162636465666768696a6b6c6d6e6f707172737475767778797a303132333435363738392b2f3c2f746578743e3c7465787420783d2231302220793d2234302220636c6173733d2262617365223e3c2f746578743e3c7465787420783d2231302220793d223138302220636c6173733d2262617365223ea26469706673582212208dee4fb7cfbbd339309ec57155708c51fd9d213e15c13e671f48b46c944337b664736f6c634300080a0033",
  "linkReferences": {},
  "deployedLinkReferences": {}
}